:020000040800F2
:10000000D87D00206D010008750100087701000807
:10001000790100087B0100087D0100080000000054
:100020000000000000000000000000007F01000848
:10003000810100080000000083010008850100081C
:100040008701000887010008552300080000000010
:10005000000000008D0900088701000887010008E2
:1000600087010008000000008701000887010008E0
:1000700087010008000000008701000887010008D0
:1000800087010008870100080000000087010008C0
:1000900087010008000000000000000000000000D0
:1000A00000000000000000000000000087010008C0
:1000B0008701000887010008870100088701000800
:1000C00000F002F800F043F80AA090E8000C824427
:1000D0008344AAF10107DA4501D100F038F8AFF204
:1000E000090EBAE80F0013F0010F18BFFB1A43F016
:1000F0000103184784360000A4360000103A24BFDC
:1001000078C878C1FAD8520724BF30C830C144BF7C
:1001100004680C60704700000023002400250026BE
:10012000103A28BF78C1FBD8520728BF30C148BF5A
:100130000B6070471FB500F03BFA0400002000215F
:1001400002F09CFD401C60601FBD10B510BD00F0AA
:100150000AFA1146FFF7EEFF02F096F900F03AFABC
:1001600003B4FFF7F2FF03BC00F03EFA09488047F2
:1001700009480047FEE7FEE7FEE7FEE7FEE7FEE789
:10018000FEE7FEE7FEE7FEE704480549054A064BA1
:100190007047000031130008C1000008D81D00207E
:1001A000D87D0020D83D0020D83D002070B50646FF
:1001B00000F004F90468054630460A22002100F0E8
:1001C0000CF92C6070BD40EA010370B59B072ED17D
:1001D0004FF00136042A2AD308C810C99D1B9D433D
:1001E000121F15EAC61517D0D8B2E1B2401A50EA6C
:1001F000056110D198B2A1B2401A50EA05410AD166
:1002000023F07F4024F07F41401A50EA052102D1BB
:10021000180EA0EB146070BDA342DBD018BA21BA4F
:10022000884201D9012070BD4FF0FF3070BD0AB97E
:10023000002070BD10F8013B11F8014B63B1A342DF
:100240000AD1521E08D010F8013B11F8014B1BB126
:10025000A34201D1521EEDD1181B70BD032A40F2FA
:10026000308010F0030C00F0158011F8013BBCF158
:10027000020F624498BF11F801CB00F8013B38BF70
:1002800011F8013BA2F1040298BF00F801CB38BF7E
:1002900000F8013B11F0030300F0D780083AC0F0EA
:1002A000088051F8043B083A51F804CBA0E8081044
:1002B000F5E7121D5CBF51F8043B40F8043BAFF377
:1002C0000080D20724BF11F8013B11F801CB48BFD1
:1002D00011F8012B24BF00F8013B00F801CB48BF07
:1002E00000F8012B70474FF0000200B5134694460A
:1002F0009646203922BFA0E80C50A0E80C50B1F17E
:100300002001BFF4F7AF090728BFA0E80C5048BF91
:100310000CC05DF804EB890028BF40F8042B08BF2F
:10032000704748BF20F8022B11F0804F18BF00F82B
:10033000012B70474FF0013C50F8042B51F8043B5F
:100340009A4221D1A2EB0C03934313EACC1317D1A9
:1003500050F8042B51F8043B9A4215D1A2EB0C0340
:10036000934313EACC130BD150F8042B51F8043B00
:100370009A4209D1A2EB0C03934313EACC13DBD0CE
:100380004FF00000704700BFD01A01BAB1FA81F1F6
:1003900001F0180122FA01F0CB40DBB2C0B2C01A62
:1003A000C1F120012CFA01F3D11A914311EAC311D2
:1003B000E6D17047704770477047000000487047AB
:1003C0000004002010B5FFF7F9FF006810BD10B55C
:1003D0000446FFF7F3FF046010BD2DE9F047914696
:1003E0000F4680460446002614F8015B2DB100F04C
:1003F00063F80068405DC007F6D12B2D02D02D2D8B
:1004000018D0641E4A463946204600F05DF827B1F0
:100410003968A14201D1C7F800804FF0020471058C
:100420000BD54042002803DDFFF7C8FF0460A0079A
:10043000BDE8F08746F48066E4E70028F8DAFFF7C5
:10044000BDFF04606FF00040F2E710B5203AC0F045
:100450000B80B1E81850A0E81850B1E81850A0E897
:100460001850203ABFF4F5AF5FEA027C24BFB1E830
:100470001850A0E8185044BF18C918C0BDE8104073
:100480005FEA827C24BF51F8043B40F8043B08BF7C
:100490007047D20728BF31F8023B48BF11F8012B43
:1004A00028BF20F8023B48BF00F8012B704700002E
:1004B000004870470004002010B500F079F8001DD6
:1004C00010BD00BFB92700002DE9F05F8246154638
:1004D0008B4600270AF10104B9460078302801D084
:1004E0009DB113E014F8010B0127782803D0582898
:1004F00001D045B10AE00DB1102D07D1002714F845
:10050000010B102502E0082500E00A250026B04670
:100510000EE005FB080005FB06F101271FFA80F835
:1005200001EB1046B6F5803F00D3B94614F8010B35
:10053000294600F041F80028EBDABBF1000F05D0A6
:100540000FB1641E00E05446CBF80040B9F1000F33
:1005500006D0FFF733FF02210160C81EBDE8F09FFF
:1005600048EA0640FAE77546FFF7A2FFAE460500E7
:100570006946534620F00700854618B020B5FFF7BE
:1005800003FEBDE820404FF000064FF000074FF09B
:1005900000084FF0000BAC46ACE8C009ACE8C0095D
:1005A000ACE8C009ACE8C00921F007018D467047EE
:1005B00000487047200400203A2800D2303820F04C
:1005C0002002412A01D3A2F13700884201D34FF023
:1005D000FF30704710B50446AFF300802046BDE8F9
:1005E0001040FFF7BDBD000001491820ABBEFEE77B
:1005F000260002007047000048F20001C4F2080122
:100600000A68002822F0010218BF01320A60704710
:1006100048F2200CC4F2080CDCF80030002943EA50
:10062000800208BF23EA8002CCF800207047000057
:100630002DE9F04148F20001C4F208010A680323E1
:10064000CFF2FF1302EA030E03784278B0F802C03B
:10065000734404791A4485896244468A02EB041281
:10066000C78A2A443244D0F818803A444B68C78974
:10067000067D0F61078A23F400338F60806802EBE8
:10068000486203EB464388620A604B60BDE8F08134
:1006900048F20000C4F2080000210160416081605E
:1006A0000161826901628162C1604161C269416226
:1006B000C1627047F0B5D0E90231D0E90424194491
:1006C000D0E900CE48F200051144C4F208052144E7
:1006D00080692E684FF6FF776144C0F6006701EB32
:1006E0000E713E4001EB405030442860F0BD0000E8
:1006F0000021C0E90011C0E90211C0E904118161C3
:10070000704700000021C182816101600171C0E970
:1007100002110161017570470021C4F209010A68E4
:10072000002822F0080218BF08320A607047000053
:100730000021C4F209010A6822F002021044086094
:10074000704700000020C4F2090000214160816070
:100750000160704748F228020123C4F20202002916
:1007600003FA00F00CBF5060106070472DE9F041B3
:10077000D1B148F20C01C4F20201096892F808C034
:1007800001EB001EBCF1030F2AD11168137CCEF8D7
:100790000010042B2FD0517A032945D15168CEF88F
:1007A0000410032147E000BF92F808E041F2004C3A
:1007B000C2F2000CBEF1030F0CEB001320D1146841
:1007C00092F810801C60B8F1040F25D0537A032BE7
:1007D00048D153680CEB0014636003234AE000BF68
:1007E00051691368013901FA0CF11944137CCEF8F0
:1007F0000010042BCFD1516801F10C07517A18E099
:1008000051691468013901FA0EF10C4492F8108014
:100810001C60B8F1040FD9D153680CEB001503F13B
:100820000C04537A25E000BF57695668013F8F409A
:100830003744CEF80470D2E90576D2E90754D2687D
:1008400043EA8C631A4342EA817121436FF00F003F
:10085000294300EB071031430843CEF80800BDE8F8
:10086000F08100BF54695568013C9C402C440CEB5E
:1008700000156C6002F11407F0CFD2686FF00F0121
:1008800001EB041148EA8E64224342EA83723A4340
:1008900032432A4311430CEB00108160BDE8F08124
:1008A00048F20400C4F202000021016041600161CD
:1008B0004FF0FF3101224161C161816201638163B7
:1008C00082640260C16141624EF28020CEF200007B
:1008D00020210160704700000139072984BF0020F2
:1008E0007047DFE801F0050D17212B353F4900BFA8
:1008F00048F20000C4F20200006800F001007047F6
:1009000048F20000C4F20200C06C012121EA00009C
:10091000704700BF48F20001C4F20201896A21FA5F
:1009200000F000F00100704748F20001C4F202013B
:10093000096A21FA00F000F00100704748F2000156
:10094000C4F20201096921FA00F000F001007047C9
:1009500048F20001C4F20201896921FA00F000F0B6
:100960000100704748F20001C4F20201096B21FA4C
:1009700000F000F00100704748F20001C4F20201EB
:10098000896B21FA00F000F00100704780B50B2060
:100990000721FFF7A1FF48B140F22C52C2F200023A
:1009A0000B200021BDE88040FFF7E0BE40F22C5054
:1009B000C2F2000000F124020B200121BDE88040BA
:1009C000FFF7D4BE2DE9F04748F2040E41F2004C87
:1009D000C4F2020EC2F2000CCEF804C00B68002B69
:1009E0004AD093F808800CEB0015B8F1030F13D12F
:1009F0001E6893F810902E60B9F1040F18D093F888
:100A000009A0BAF1030F19D15D680CEB00167560EF
:100A10004FF0030A1BE000BF5C691E68013C04FA4A
:100A200008F4264493F810902E60B9F1040FE6D133
:100A30005D6893F809A005F10C0605E05E695F6842
:100A4000013E06FA0AF63E440CEB00177E60D3E93D
:100A50000567D3E90724DB686FF00F0505EB061582
:100A600049EA8866334343EA8A7323431A433A4385
:100A70002A430CEB00139A604A68002A4CD0DEF837
:100A8000083092F808C003EB0018BCF1030F13D133
:100A9000156892F81090C8F80050B9F1040F18D0FA
:100AA00092F809A0BAF1030F1AD155684FF0030A62
:100AB000C8F804501CE000BF54691568013C04FAF2
:100AC0000CF4254492F81090C8F80050B9F1040FC6
:100AD000E6D1556892F809A005F10C0606E000BFC2
:100AE00056695768013E06FA0AF63E44C8F80460A3
:100AF000D2E90567D2E90734D2686FF00F0505EB3C
:100B0000061549EA8C66324342EA8A7222431A4346
:100B10003A432A43C8F808208A68012342F00102B8
:100B2000CEF800204A7B03FA00F0012A14BFCEF869
:100B30001800CEF81400CEF82000CEF824008A7BEE
:100B4000002A14BFCEF82C00CEF83000097B012912
:100B500014BFCEF83800CEF83400BDE8F0870000AE
:100B60000021C0F80B10C0E900118160704700003F
:100B70000021C1600161416001608160416181616A
:100B8000C16170472DE9F04F86B04668D0F80890F3
:100B9000C2688B4605920169039141690491D0F8BE
:100BA00018A00090D0F81CE0BBF80070002F5FD0B8
:100BB000012203234FF0011400254FF0000C08E040
:100BC00052009B0064000CF1010C7F0805F1020546
:100BD0004ED0F807F4D026EA02009BF8026029EA1A
:100BE000030906FA0CF6304302909BF80800059EB4
:100BF000A84040EA09019BF80A00964300FA0CF06D
:100C00003043CDF804E09BF803E0059003989BF88F
:100C100004800CF1100620EA04090EFA06F040EAFE
:100C2000090E08FA0CF040EA0E0003909BF805004C
:100C300089460499B0409BF8066021EA040E40EA18
:100C40000E0006FA0CF6304304909BF809002AEADD
:100C50000306A84040EA060A9BF80700019900FA3B
:100C60000CF021EA020640EA060E029EA8E700BF49
:100C700000984660C0F808900599C1600399016129
:100C800004994161C0F818A0C0F81CE006B0BDE8A6
:100C9000F08F0000026822EA010101607047000045
:100CA00002681143016070478821C4F24021086046
:100CB000704700000422C4F20202936823F0030389
:100CC0001843906013688C2023F4706343EA012179
:100CD000C4F24020116050F8041C002908BF70477E
:100CE00001210160002101607047000081B00020F7
:100CF000C4F20200002100910168009A01320092C2
:100D0000009A520A022A23D811F0020120D1016868
:100D1000009A01320092009A520A022A18D811F061
:100D2000020115D10168009A01320092009A520A1C
:100D3000022A0DD811F002010AD10168009A01328D
:100D40000092009A520A022A02D811F00201D3D06E
:100D50000068C0F3400001B07047000040F2881105
:100D6000C4F24021086070470C21C4F202010A68F5
:100D700022F0F00242EA0010086070470C21C4F231
:100D800002010A6822F440721043086070470000B4
:100D90000821C4F202010A68012822F003020A6055
:100DA00003D0022818BF704703200A681043086068
:100DB0007047000081B00020C4F2020000210091C1
:100DC0000168009A01320092009A520A022A23D83E
:100DD00011F0040120D10168009A01320092009ABA
:100DE000520A022A18D811F0040115D10168009A9C
:100DF00001320092009A520A022A0DD811F0040121
:100E00000AD10168009A01320092009A520A022A1D
:100E100002D811F00401D3D00068C0F3800001B003
:100E200070470000002940F21C01C4F202010A6868
:100E30000CBF22EA00001043086070472DE9F04122
:100E40004BF6500245F629434CF25031C0F21E5287
:100E5000CCF28F2391FBF0F100FB03224FF4FA70E8
:100E600090FBF1F04FEAB20145F62842C0F28F2222
:100E7000914288BF013002F050F948F6C1524BF65A
:100E80006443C4F6D612C3F6897302F071F944F2D2
:100E9000000840F6944704460D460026C4F29F0819
:100EA000C2F20007304602F038F902460B462046EF
:100EB000294602F05DF901F091FE0022434602F05E
:100EC00057F902F0FBF800F5FA6027F81600013632
:100ED000B6F5FA7FE6D14FF4FA603880A7F8E6035A
:100EE000BDE8F081F0B581B01020C0F20200012110
:100EF000FFF798FF4FF0C0700121FFF793FF4EF608
:100F0000085040F20051CEF20000C0F2FA514160A8
:100F10004FF0006101604EF20010CEF200004FF081
:100F2000FF310024C0F88011C0F880104FF4003168
:100F3000C4F20C0401602046FFF71AFE41F60801D6
:100F4000C2F200010326002720460E808F708F72A8
:100F5000FFF718FEFFF79CFB40F2E444C2F20004E6
:100F60002046FFF7C5FB2046FFF7A4FB04F11C0554
:100F70002846FFF7C7FB40F60000C0F20020E06102
:100F80004FF48040608602206063284684F8207019
:100F90006662E78584F83070FFF74AFB0420012180
:100FA00001B0BDE8F040FFF733BB0000B0B5102042
:100FB000C0F2040001210125FFF734FF4FF000705B
:100FC0000121FFF72FFF48F20004C4F20C04204671
:100FD000FFF7CEFD41F60801C2F200010020887043
:100FE000887220460D80FFF7CDFDFFF7ABFB002098
:100FF000FFF79EFB0120BDE8B040FFF78DBB00006E
:101000002DE9F04F81B040F22010C0F21000012114
:10101000FFF708FF4EF20011CEF200014FF0FF3053
:10102000C1F88001C1F88000FFF73AFC40F27C442F
:10103000C2F200042046FFF793FD48F218014FF476
:101040000005C4F2080120462564254640F8201F0B
:1010500040F2746245F8441F40F27451C2F200023B
:1010600080274FF420334FF48026C2F200016262E1
:1010700040F203124FF0885B67638027C4E90E36A5
:101080004FF480264FF4000C4FF0030AA164C4E92A
:1010900000054FF00008082021462285C4F82CB036
:1010A00084F830A0A4F84C20C4F850B0C4E91673FA
:1010B000C4E9186C84F854A0A4F80C8084F80E805D
:1010C000FFF780FC48F21C09C4F202094FF480705B
:1010D00004F11005C9F80800C9F800002846FFF718
:1010E0003FFD40F22C5040F6944C40F2080EC2F204
:1010F0000000C2F2000CC4F2090E4FF4FA7340F281
:1011000001374FF480364FF480214FF40002C0E9DC
:1011100000CE0781C0F80CB080F810A0C0E90536F9
:10112000C1610262C0F824C0C0F828E08785C0F819
:1011300030B0C0E90E36C0E9101280F834A020614A
:101140000B202946A4F81C8084F81E80FFF73AFC87
:101150004FF400604EF20011C9F80800C9F8000011
:101160002020CEF2000108604EF20540CEF20000D1
:101170008021017001B0BDE8F08F0000F0B581B0B2
:101180004FF4004001214FF40046FFF74BFE48F2B8
:101190000004C4F20704204600F090F92046002124
:1011A000002700F01FF940F67C45C2F200052846F2
:1011B00000F072F93020E8604FF4801028601320AE
:1011C0006860204629462F8100F04AF94EF200104F
:1011D000CEF20000066020460221012200F064F9F0
:1011E0002046012101B0BDE8F04000F031B9000017
:1011F00070B584B001200126FFF7CAFDFFF7DAFDC4
:10120000012819D102200721FFF754FD01200126F2
:10121000FFF74AFDFFF76AFD012839D10020FFF7EB
:10122000A3FD0120FFF79AFD4FF4807004B0BDE8E4
:101230007040FFF7A3BD00BF4DF6F00548F2000473
:101240004FF400000121CFF6FF75C4F20B04FFF745
:10125000E9FD0420ADF8040040F20310ADF80D00E4
:1012600001A920468DF80660FFF78CFC204604217A
:10127000FFF716FD284600BF013000BFFCD3204613
:101280000421FFF707FD2846013000BFFCD3EDE73E
:101290004DF6F00548F200044FF400000121CFF6AE
:1012A000FF75C4F20B04FFF7BDFD0420ADF8040088
:1012B00040F20310ADF80D0001A920468DF806603C
:1012C000FFF760FC20460421FFF7EAFC284600BF38
:1012D000013000BFFCD320460421FFF7DBFC284689
:1012E000013000BFFCD3EDE710B504200121042438
:1012F000FFF798FD40F21C50C2F2000040F203518B
:10130000018010222021C0E90212014641F8042F79
:1013100000F008FB1F2001F07BF800F04BFB4EF2C1
:101320000010CEF200000460BDE8104000F01ABAD0
:101330000C20C4F20200102101610021016040F87C
:10134000081C40F8041C41608160C16041618161FA
:10135000C161016201680268890742F20041C0F27E
:10136000F40103685CBF41F20021C0F27A0102F08F
:1013700001025B0721FA02F105D550F8082CC2F3EF
:101380000322013251430268C2F3012282B1022AD0
:1013900018D0012A1ED10068C0F303100130B1FB40
:1013A000F0F040F25801C2F200010860704700BF3F
:1013B00041F20020C0F27A0040F25801C2F200016E
:1013C000086070474FF4004040F25801C2F200013B
:1013D0000860704749F6404040F25801C2F20001EF
:1013E0000860704740F2240CC4F2020C0022DCF8C2
:1013F0000030C4F20802904212D048F20002C4F257
:101400000702904218D00022C4F20702904210D185
:1014100023F0FF00084440F08073CCF800307047A0
:101420004FF6FF70CFF60030184040EA014000F15F
:101430008063CCF800307047FF20CFF6FF50184093
:1014400040EA012000F10073CCF800307047000042
:10145000C268002922F0010218BF0132C260704741
:101460000A8802604A8842608A888260B1F806C0B1
:101470000B894A89634403EB020C8B89CA89634454
:101480001A44C2600A8A4B8A03EB02128B8AC98A09
:101490001A44114401657047002141610161C16036
:1014A0008160416001607047D0F85CC0002A4CEA5E
:1014B000010308BF2CEA0103C36570470021C16026
:1014C000016041608160016241628162C1620163C9
:1014D00041638163C163016641668166C1660161E2
:1014E00041618161C161016741678167C1670164D1
:1014F00041648164C164016541658165C16570476E
:101500000021C4F202010A69037840781A4342F4C8
:1015100082720A614A6842EA001040F001004860A5
:1015200004E000BF0868C00718BF70470868C0071C
:1015300006D10868C00704BF08685FEAC070F1D030
:101540007047000080B540F2684CC2F2000C9CF875
:101550000100831E202B4FF0010029D8BCF8062083
:10156000DFE803F012222626262626262626262611
:10157000262626262626262626262626262626260B
:1015800026262838560000BF022A3FD140F6744173
:1015900041F24563C2F20001C0F6000300200222BE
:1015A000BDE8804000F046BE0220022A08BF0120AC
:1015B00080BD00BF072A29D140F6744141F245633E
:1015C000C2F20001C0F6000300200722BDE88040FF
:1015D00000F030BE072A19D1BCF8040040F674416F
:1015E000C2F2000100F068F8002818BF80BD40F684
:1015F000744141F6E503C2F20001C0F60003002089
:101600000722BDE8804000F0F5BD00BF022080BD8C
:10161000002A1CBF002080BD9CF90000B0F1FF3FF4
:1016200008DD0020002100220023BDE8804000F0FA
:10163000E1BD00BF0020002100220023BDE8804062
:1016400000F0F8BD10B540F26842C2F200025378D3
:10165000022B11D0202B11D10446908800F0C6F83F
:10166000002818BF10BD2046002100220023BDE83D
:10167000104000F0BFBD00BF012010BD022010BD12
:10168000010601D001207047000A40F20001012844
:10169000C2F2000104D00228F4D11231432000E04C
:1016A000122041F6E503904238BF0246C0F600031F
:1016B000002000F09FBD000000281CBF02207047E2
:1016C00041F60000C2F2000005C8C1E90002002096
:1016D0007047000041F61453C2F20003C3E9000151
:1016E00000201881B2FA82F040094102002059819D
:1016F0007047000080B50846114600F021F8002828
:1017000041F61450C2F200001CBF4FF40071418139
:10171000418900291CBF002080BDD0E9001241F2A0
:10172000F563C0F600030320BDE8804000F082BDF1
:1017300041F61451C2F20001002200200A817047D4
:1017400080B5014641F61400C2F200004FF4A062D9
:10175000FEF784FD41F6D051C2F2000101220020C3
:101760000A6080BD10B500F031F90446A8B9012027
:1017700005210022002400F08FFA0220052100221A
:1017800000F08AFA03200121002200F085FA41F6D8
:101790001450C2F20000418911B1204610BD00BFB3
:1017A000D0E9001241F2F563C0F600030320BDE862
:1017B000104000F03FBD000080B541F6145CC2F25D
:1017C000000CBCF808300BB1184680BD0A46014633
:1017D0004FF4007041F23173ACF80800C0F600031A
:1017E000012000F007FD0346184680BD00281CBFFD
:1017F00002207047D1E9000141F60002C2F2000266
:10180000C2E9000100207047F0B581B002284FF016
:10181000010608BF002903D0304601B0F0BD00BF6B
:1018200041F62050D4B2C2F200002C2104FB010783
:1018300002257A7EC0F2080512B1012206E000BF3F
:10184000BA7E002A0CBF4FF40025012261434254A6
:1018500000261F207E7000F0E7FD204629463E76D8
:1018600000F0B0FD304601B0F0BD0000F0B581B031
:101870004EF20015CEF20005042040F26046C5F895
:101880008000C2F20006706810B1002001B0F0BD07
:101890000120706000F058FD0446400706D5032083
:1018A00030740020B061002000F07AFD0020214655
:1018B000002700F00DFA0120214600F009FA02206D
:1018C000214600F005FA0320214600F001FA24F039
:1018D000010000F0A9FD042077602860002001B01D
:1018E000F0BD000070B5044641F62050C2F2000081
:1018F0002C2104FB010561430122002642521F20D6
:101900002E62C5E90166C5E903666A7600F08CFDC2
:101910000221C0F2080120462E7600F053FD00207F
:1019200070BD000070B50C46FFF7EAFD00F014FD35
:101930004FF4803000F028FD206800F025FDD4E948
:101940000101084340F0010000F030FD41F6205550
:10195000C2F200050024002005212C80C5E90144C5
:10196000C5E903446C612C76C5E90744C5E909441F
:1019700000F028FD40F26046C2F2000606F10800C1
:10198000C5E9044041F62920C0F600006862012044
:10199000A87628801F20C5E9024400F045FD0221F9
:1019A000C0F2080100202C7600F00CFD00203474F9
:1019B000B46170BD80B50C2000F0E6FC40F26041DF
:1019C000C2F20001022200200A7480BD40F2604190
:1019D000C2F20001032200200A74704770B5022889
:1019E0004FF0010408BF002902D0204670BD00BF9F
:1019F000100617D041F62050C2F20000D5B22C21BB
:101A000005FB0106694340F2051242521F2000F017
:101A10000BFD002428460A21347600F0D3FC204632
:101A200070BD00BF012070BD2DE9F04381B00D46AF
:101A3000097801F06002402A38D0202A3CD0002AE0
:101A40002ED14BB2814603F01F00032828D86E78B0
:101A50000C2E25D86988AA88B5F806800127DFE80A
:101A600006F007311F411F515D26657781912600E1
:101A7000B3F1FF3F00F38D8040F26041C2F20001FC
:101A80000B7C042B07D1012800F08380022802D1AF
:101A9000032A00F27E80022880F08E80002094E0ED
:101AA0000227384601B0BDE8F08300BF0127384661
:101AB00001B0BDE8F08300BF01B0BDE8F043FFF71F
:101AC00041BD00BF40F26043C2F200031B7C042B07
:101AD00005D101285DD0022801D1032A59D8FFF78A
:101AE00093FE20E040F26043C2F200031B7C042B13
:101AF00005D101284DD0022801D1032A49D8FFF78A
:101B00006DFF10E040F26040C2F20000816141F6DA
:101B10007540C0F60000002763E000BF084611468C
:101B20004246FFF7ADFD07465AE000BF40F2604174
:101B3000C2F20001087C41F6E503043818BF012019
:101B40000870C0F600034846012200F053FB31E064
:101B5000012929D0E9B940F26040C2F20000042115
:101B600027E000BF40F26041C2F20001087C042877
:101B70000FD0002741F6E5030F70C0F6000348467A
:101B800001222BE040F26040C2F20000007C0428F9
:101B900004D10127384601B0BDE8F08352EA0107BD
:101BA00018BF01271CE000BF40F26040C2F20000F5
:101BB00005210174002713E008D141F62050C2F23C
:101BC00000002C2302FB03004078087041F6E50377
:101BD0000027C0F60003484602224F7000F00AFBBF
:101BE000002057EA08017FF462AF95F90010B1F1C7
:101BF000FF3F1FDD41F62054C2F200042C2109FBF7
:101C0000014209FB01F5917E00274023D0610029A4
:101C10004FF002014846C2E90177C2E903734FF071
:101C2000020608BF012100F027FB6655384601B0C7
:101C3000BDE8F08341F62051C2F200012C2209FBDD
:101C4000021409FB02F2206201200027607688520C
:101C50001F20C4E90177C4E9037700F0E5FB022106
:101C6000C0F208014846277600F0ACFB384601B0C8
:101C7000BDE8F08310B540F26044C2F20004A069F0
:101C800000F08EFBA069042100284FF0000008BF7F
:101C90000321217410BD000010B541F6205CC2F292
:101CA000000C4FF02C0E00FB0EC300FB0EFE0024B8
:101CB000C3E90144C3E903445C61C3E90744C3E9E0
:101CC00009422CF80E401C7600F07CFB002010BD71
:101CD0002DE9F04F8DB00D46814600F025FB0790B1
:101CE000484600F029FB00F003000B90484600F046
:101CF00003FB41F62052C2F200022C2109FB012A0B
:101D0000E90706901CBF01208AF8180006980AF11E
:101D1000180800F002040AF101000C900AF1190001
:101D200004900AF11A00099007980AF1040B00F0D8
:101D3000400100F00F0003910AF11C010A900AF122
:101D4000280000260025002702910590089413E042
:101D50001F2000F069FBDDF80480002688F8006091
:101D60004846022100F02EFB089C00BF002F4FF0D8
:101D70000107284600F013829AF800000528F5D8DC
:101D8000DFE810F00D02060020005A007001640028
:101D9000002CEBD198F800000028E7D00B98002821
:101DA00000F0D680022840F09F8004980078002838
:101DB00000F09A8003208AF800000498012706703A
:101DC000D4E700BF002C5DD198F80000002859D05E
:101DD0000B98012856D10398002853D0DBF80C103B
:101DE000DBE9012008449042CBF8080080F08880AD
:101DF00048460121CDF8048000F002FB484600F07F
:101E0000B9FADBF80C20DBE9011002448A4238BF42
:101E1000114688429CD24E42A0F10108DBF8000036
:101E200040444178484600F0E3FA08F1010806EB27
:101E300008000130F2D18BE7002C7FF497AF98F8BF
:101E4000000000283FF492AF52E100BF002C7FF465
:101E50008DAF0C980078012834D1B9F1000F3FF410
:101E600085AF0C980121017005208AF800001F2021
:101E700000F0DAFA48460A2188F8006000F0A2FA79
:101E800074E700BF0A9800283FF470AF059800215E
:101E900006688AF800102EB10B9ADDE90631484633
:101EA000B0470546C5B109984446007800283FD0A0
:101EB0000C984FF0000880F8008005200A268AF868
:101EC000000038E004980078002849D0022601205C
:101ED000C0F208064FE000BF9AF80000002865D065
:101EE0000025002642E700BF09980078002851D05D
:101EF0000C980A25067005208AF800004BE000BF08
:101F000002988AF80060036823B1DBF800104846A5
:101F100098470546002D71D009980078002873D0A5
:101F20000C98067005208AF8000000260A206DE053
:101F300000264FF000081F2000F076FA4846314690
:101F400084F80080A04600F03DFA00260CE700BFB0
:101F500009980078F0B104208AF80000012705E70D
:101F6000099802260078C0F20806002818BF012050
:101F700008BF4FF400268AF800000C980024047073
:101F80001F2000F051FA48463146002688F80040EC
:101F9000E8E600BF00251F2000F046FA4846294623
:101FA00088F8006000F00EFA0125DFE602208AF8CA
:101FB00000004846012100F023FADBF80C20DBE9A1
:101FC000011002448A4238BF114688420DD24D4268
:101FD000461E00BFDBF8000030444178484600F060
:101FE00007FA0136A8190130F4D11F2000F01CFABD
:101FF000002588F80050484602210FE09AF80000BA
:1020000080B10025B2E600BF0026002001901F200D
:1020100000F00AFA0199484688F8006000F0D2F909
:102020000026A3E60498007820B102260120C0F221
:1020300008060AE0099802260078C0F2080600287F
:1020400018BF012008BF4FF400268AF800000C9842
:10205000002505701F2000F0E7F988F80050484679
:102060003146DBE798F800000028284600F097800A
:10207000484600F051F908285ED141F620512C2045
:10208000C2F2000109FB0015484600F03DF96969FC
:102090000870484600F038F969694870484600F011
:1020A00033F969698870484600F02EF96969C8708B
:1020B000484600F029F969690871484600F024F99A
:1020C00069694871484600F01FF969698871484696
:1020D00000F01AF96969C8714846012100F080F9D9
:1020E00069696A6A4846904700285DD0054641E024
:1020F000484600F011F9044680B167424FF0FF36C0
:10210000484600F001F9DBF80010DBF80820114424
:1021100031440136BA1901324870F1D148460121E3
:1021200000F05EF9DBE9011002198A42CBF80820C1
:102130000ED2022628E000BF48460121012500F00A
:102140004FF9099800260078F0B10C98012516E0A7
:1021500041F620512C20C2F2000109FB0010036A55
:1021600000208AF8000023B1DBF8001048469847A9
:1021700005462DB309980026007828B10C98067002
:1021800005208AF800000A261F2000F04DF90020E3
:1021900088F800004846314600F014F9284680B21D
:1021A0000DB0BDE8F08F00BF9AF8000004280BD1F5
:1021B0000498007870B102260120C0F2080613E0EE
:1021C0009AF800000028F3D0002080B20DB0BDE8DE
:1021D000F08F00BF099802260078C0F20806002898
:1021E0000CBF4FF4002601208AF800000C9800254F
:1021F0000570C9E72DE9F04141F62058C2F2000808
:102200002C2400FB04854FF0400CAE7E05F1040E3B
:1022100000278EE8861002214443EB610225002E40
:1022200008BF012100F028F8002008F80450BDE89C
:10223000F081000070B541F6205C0446C2F2000C4B
:102240002C2004FB00C5604305F1040E00268EE837
:10225000460001212CF800101F202E612B626976A8
:1022600000F0E2F80221C0F2080120462E7600F0CC
:10227000A9F8002070BD00002DE9F0410D460121B4
:10228000044600F0BDF8022D06D0012D08D12046ED
:1022900000F070F804E000BF2046042100F092F83E
:1022A00041F62050C2F200002C2104FB0108D8F8AE
:1022B0001020D8E9021002448A4238BF11468842F1
:1022C0000ED208F104064F42451E00BF3068284474
:1022D0004178204600F08CF8013578190130F5D1AD
:1022E0001F2000F0A1F800222046022188F81820C3
:1022F000BDE8F04100F066B840F200110001C4F200
:10230000010108587047000040F28011C001C4F27A
:10231000010108587047000040F28C11C001C4F25E
:10232000010108587047000040F204110001C4F296
:10233000010108587047000040F208110001C4F282
:10234000010108587047000040F24810C4F2010033
:1023500000687047FFF78ABA40F28030C4F201008B
:10236000016841F002010160016821F00201016091
:102370007047000040F200110001C4F201010A5848
:1023800082F004020A50704740F28031C4F2010129
:102390000A6883B21A4322EA1040086070470000BE
:1023A00040F25011C4F201010860704740F2401140
:1023B000C4F201010A6883B21A4322EA104008609D
:1023C0007047000040F2001C0001C4F2010C5CF8F0
:1023D00000308AB21A4322EA11414CF800107047CB
:1023E00040F29012C001C4F2010211507047000087
:1023F00040F2C012C001C4F2010211507047000047
:1024000040F2D012C001C4F2010211507047000026
:1024100040F24C11C4F201010A6883B21A4322EA65
:10242000104008607047000040F24811C4F20101FA
:102430000860704741F6000044F24021C2F20000FB
:10244000C0F20F0101600021818008218171704775
:1024500010B50AA109220446FDF7B5FE002818BFF1
:1024600010BD04F10900FDF7A1FE642804DBBDE8FE
:102470001040FEF7E3BC00BF10BD00BF73657420C1
:102480006672657120000000FFF7D4FFFEF72AFD99
:10249000FEF7B6FD40F27478C2F200084046012112
:1024A0000122FFF717F9FEF7A3FEFEF71DFF6420D8
:1024B000FEF7C4FCFEF77AFDFEF760FE0B2001215B
:1024C000FEF748F90120FEF797F808200121FEF7F2
:1024D00041F941F6D05641F6140940F29C4A40F2C7
:1024E000746740F2C04440F27455C2F200064FF0E7
:1024F000000BC2F20009C2F2000AC2F20007C2F2E7
:102500000004C2F20005306801280FD10020FEF758
:1025100073F84846C6F800B0FFF79AFF40464FF4FC
:10252000A061FDF7E0FE0120FEF766F80820072114
:10253000FEF7D2F90028F9D0082000215246FEF714
:1025400015F938464FF48071FFF736F90820072156
:10255000FEF7C2F90028F9D1082001212246FEF732
:1025600005F928464FF48071FFF726F930680128F5
:10257000DCD1CBE7490050EAC12018BF04204A0D46
:1025800018BF40F0010040F2FF72B2EB515F08BF8C
:1025900040F00200012808BF052070472DE9F74FE1
:1025A000144694B00021C4E902111599079121F055
:1025B0000045C9498D4206DC1599C4E9000117B0F0
:1025C0000020BDE8F08FC549DFF814A3A9423CDD27
:1025D0000799C44E0029C44FC44A1599534619DDC2
:1025E00000F0D0FE554506D0C14AC24B00F0CAFEED
:1025F000C4E900010AE04FF0D352BE4B00F0C2FE26
:1026000032463B4600F0BEFEC4E9000117B001208F
:10261000BDE8F08F00F048FB554506D0B44AB54BF5
:1026200000F042FBC4E900010AE04FF0D352B14B85
:1026300000F03AFB32463B4600F036FBC4E90001AD
:1026400017B04FF0FF30BDE8F08FAB49A9421599A4
:1026500078DB21F0004183468846A84AA84B00F069
:1026600087FD0022A74B00F01FFB00F027FD09901B
:1026700000F053FD06460F469C4A534600F078FD95
:1026800043465A4600F072FE80468A46984A994B65
:102690003046394600F06CFD2A0D01250B9242466A
:1026A000534600F063FE032DC4E9000139D00B98B6
:1026B000C1F30A51401A05EB45111139814230DA54
:1026C0009148C346784400EB0510CDF80CA00C905F
:1026D000D0E900233046394600F04AFD02460B4659
:1026E000049106905846039900F04CFE80468A46B5
:1026F00002460B465846039900F044FE049B069A96
:1027000000F040FE83460C9803913946D0E902233D
:10271000304600F02DFD5A46039B00F033FE6D1C41
:10272000BDE707980028A2BF099817B0BDE8F08F51
:10273000616881F000416160099817B04042BDE8CE
:10274000F08FFFE784461598C1F31301C0F30A50D8
:10275000A0F2F5304FEA601800F01F06C6F1200025
:10276000139000200690079041F4801E05206D46CE
:1027700076B1664A08EB00017A4452F8213002EB48
:102780008101B3404A68139922FA01F1194305E027
:102790005F4908EB0002794451F82210A1FB0E2793
:1027A000A1FB0C131A449A4234BF0123002303EB0C
:1027B000070A05EB8003D3E901B70F448F4234BF0A
:1027C0000121002193448B4411B1934502D903E0C8
:1027D000934501D2012100E00021C3E901B7514432
:1027E00045F82010011EA0F10100C1DC0298059FF0
:1027F00000F10050800F12900298DDE9035680002E
:1028000000F08BFC834628460D9100F09DFC6FF094
:102810001D0200F0D7FECDE90E01304600F094FC19
:102820006FF03D0200F0CEFE80468A46384600F04A
:102830008BFC6FF05D0200F0C5FE07464246534632
:10284000119100F031FADDE90E2300F02DFA5A461D
:102850000D9B00F029FA00250E465A4628460D9B8E
:1028600000F090FDDDE90E2300F08CFD424653465A
:1028700000F088FD3A46119B00F078FDDFF898A043
:10288000244A534600F074FC07468846234A244BEA
:102890003146284600F06CFC3A46434600F004FA04
:1028A000074688464FF0A84253463146284600F076
:1028B0005FFC3A46434600F0F7F9159A12F0004FD4
:1028C00004D0129A81F0004152421292C4E90001F0
:1028D000129817B0BDE8F08FFB21E93F7CD9024088
:1028E000FB21F93F7370032E8A19A33B000040546B
:1028F0003163621A61B4D03DFB21394183C8C96D8F
:10290000305FE43F0000E03FB80F0000340F0000EC
:10291000160F0000182D4454FB21F93D3326A61153
:10292000460B113C2DE9FF4D21F0004807460C46AF
:10293000B8F1795F08DA00F0C1FB002801BF002080
:10294000324904B0BDE8F08D3A4623461046194698
:1029500000F00EFC054602462D480E460B460621A9
:10296000784400F05DF82A46334600F001FCDDE9CA
:10297000022382468B463846214600F0F9FB044686
:102980000F4652465B462846314600F0F1FB224690
:102990003B4600F0F7FC07468A464FF0FF322846D8
:1029A000314600F00FFE1B4A90450ADA3A4653467C
:1029B00000F0E8FC04B00022BDE8F04D134B00F03D
:1029C000D5BC154A4245A8BFA8F500154FF0000434
:1029D000B8BF124D22462B4600F0D4FC064688466E
:1029E00022462B460020094900F0CCFC04460D4647
:1029F0003A4653463046414600F0C4FC04B02246F5
:102A00002B46BDE8F04D00F0B1BC00000000F03FE7
:102A1000EC0C00003333D33F0000E93F0000D23F0D
:102A20002DE9F0414F1E00EBC7010446D1E900013A
:102A300015461E4637F006020DD02A46334600F0F2
:102A400097FB7F1E04EBC703D3E9002300F02CF9AA
:102A500037F00602F1D1022F25D0042F13D0062F14
:102A600018BFBDE8F0812A46334600F081FBD4E967
:102A70000A2300F019F92A46334600F079FBD4E91D
:102A8000082300F011F92A46334600F071FBD4E91F
:102A9000062300F009F92A46334600F069FBD4E921
:102AA000042300F001F92A46334600F061FBD4E923
:102AB000022300F0F9F82A46334600F059FBD4E926
:102AC0000023BDE8F04100F0EFB800002DE9FF4D14
:102AD000054621F0004084B00C46B0F1795F0BDA76
:102AE0002846FFF747FD042808BF00F06FF8284686
:102AF00008B02146BDE8F08D2A460B46104600F08E
:102B000037FB06460F462A46234600F031FB804637
:102B100026488A4632463B4605217844FFF780FF27
:102B200083461098029160B3214A224B4046514699
:102B300000F01EFBCDE900015A4640465146029B7B
:102B400000F016FB82468846DDE906014FF0FF32B1
:102B500000F038FD5246434600F014FC32463B4636
:102B600000F006FBDDE9062300F00CFCDDE90023A4
:102B700000F008FC08B02A462346BDE8F04D00F0FE
:102B8000F5BB0B465A463046394600F0F1FA084A82
:102B9000084B00F089F84246534600F0E9FA08B0C5
:102BA0002A462346BDE8F04D00F07EB8320C000006
:102BB000495555555555C5BF012200F003BD0022AA
:102BC00013461046114600F01FB90000024A0020CB
:102BD000110700F0F7BC000001FDFFFF00B5254B19
:102BE00021F0004287B09A4203DC00221346009293
:102BF0002BE0214B9A4208D140B94FF00100FDF77C
:102C0000E6FBFFF7DCFF07B000BD03DBFFF7D4FFF7
:102C100007B000BD02AAFFF7C1FC10F003014FF09E
:102C200001000DD0012914D002291AD00DF1080C91
:102C30009CE80F00FFF776FE07B081F0004100BD71
:102C40000DF1080C00909CE80F00FFF73FFF07B064
:102C500000BD0DF1080C9CE80F00FFF763FE07B004
:102C600000BD0DF1080C00909CE80F00FFF72EFF4F
:102C7000E2E70000FB21E93F0000F07F10B50029EA
:102C80000AD00878002807D005487844FDF752FBA1
:102C9000002801D0002010BD0248784410BD00007B
:102CA0000E0B0000060B000010B591EA030F48BFA1
:102CB00083F0004300F16E83841A71EB030C05D29C
:102CC000121943EB0C03001B61EB0C014FEA11548A
:102CD000A4EB135CDFF81CE11EEA430F18BF9EEA69
:102CE000445F00F0748021EA045123EA0E0343F4A8
:102CF0008013DCF1200E32D322FA0CFE10EB0E0012
:102D000023FA0CFE41EB0E01CCF1200E03FA0EFE6D
:102D100010EB0E00CCF1200E51F10001B1F5801F37
:102D200032D201EB045112FA0EF2BDE8104058BF46
:102D30007047401C38BF5FEA420218BF7047002846
:102D400014BF20F0010041F100014FEA410313F5E7
:102D5000001F38BF7047A1F1C04100F001BB012A3C
:102D600043EB0302ACF1200CDCF11F0E32BF4FF03D
:102D7000000E23FA0CF310EB030041EB0451B4EB0B
:102D8000115FD0D0A1EB045101F58011490801EB8E
:102D900004515FEA30000ED350F1000038BF12FA40
:102DA0000EFE08D1BDE81040C9E7401C38BF5FEAFD
:102DB0004202CAD1C3E7BDE810404FEA410313F510
:102DC000001F38BF7047A1F1C04100F0C9BA9EEAA8
:102DD000445F08D011EA5E0FBDE8104004BF01F067
:102DE000004100207047BDE8104070B500F06AFA5D
:102DF00064FBBE3E0000E0FF02494FF0000000F01F
:102E0000AFBB00BF0000F87F2DE9C04130B4DFF850
:102E1000A4C23CEA111418BF3CEA131400F0ED8080
:102E20001CEA111481EA030544EAD57418BF1CEAB0
:102E3000131500F0C880A4EB050404F17F7404F5B9
:102E400000344FF0004545EAC12145EAC32341EA79
:102E5000505143EA52534FEAC0204FEAC2229942EE
:102E600008BF904200F09D804FEA13650FF24416B0
:102E7000765D4FEA134506FB05F7C7F1807706FB41
:102E800007F74FEAD737A7FB03687642A7FB06CEC2
:102E9000C8F5803838BFA8F1010807FB08E6A6FB93
:102EA000028C4FF0000EE6FB03CEDCF1000CCEF1FD
:102EB000004E38BFAEF1010EA6FB0C584FF00007D4
:102EC000E6FB0E87A1FB08C6A0FB07CE16EB0E069D
:102ED0004FF0000545F10005E1FB076515F1E04EF7
:102EE0007EBFA4F580345FEA46066D4116F1800787
:102EF00045F100054FEA172747EA05674FEA152510
:102F00004FEA0666A6F1DE46B6F1805F20D9384664
:102F100005EBC47124F0010C01EB0C11BCF1FE6F48
:102F200002D8F0BCBDE8008124425CBF01F5801EE0
:102F30009EEAC47F02D4F0BCBDE80081244200F1C7
:102F40003980A1F1C041F0BCBDE8004100F008BAF1
:102F50004FEAD02040EA41504FEAD1214FEAD22235
:102F600042EA43524FEAD323A7FB028607FB0366DC
:102F700005FB02661EEA0E0F58BFA6EB0056B6EB25
:102F800000564FEA520E4EEAC37E18EB0E0E56EB79
:102F9000530EBCD518EB02085E417F1C55F10005AD
:102FA000B5E74FF480154FF000074FF000064FF0E3
:102FB0000008ACE701F1C04101F000414FF0000012
:102FC000F0BCBDE800810CEA131511EA0C1F00D01B
:102FD0000CE013EA0C1F00F026804FF0000081EA9D
:102FE000030101F00041F0BCBDE80081F0BCBDE888
:102FF000004181EA030100F0B3B9F0BCBDE8004133
:1030000070B500F05FF900BF097EFC3E00F007B824
:103010004FF0000081EA030101F00041704781EAAE
:10302000030100F09DB9F0BCBDE8004122494FF01A
:1030300000007047FFFDFBF9F7F5F4F2F0EEEDEB61
:10304000E9E8E6E4E3E1E0DEDDDBDAD8D7D5D4D3A6
:10305000D1D0CFCDCCCBCAC8C7C6C5C4C2C1C0BFF2
:10306000BEBDBCBBBAB9B8B7B6B5B4B3B2B1B0AFF8
:10307000AEADACABAAA9A8A8A7A6A5A4A3A3A2A1DC
:10308000A09F9F9E9D9C9C9B9A9999989797969597
:1030900095949393929191908F8F8E8E8D8C8C8B33
:1030A0008B8A8989888887878685858484838382BB
:1030B000828181800000FF070000F87F4FEA410312
:1030C0004FEA5353A3F58063D3F11E03C8BFD3F176
:1030D000210C0CDD4FF0004242EAC12242EA50527C
:1030E00032FA03FC8CEAE17CACEBE1707047102B08
:1030F000C4BF0020704703F5787CBCF1FF3F04D0CB
:103100006FF0004282EA2100704770B500F0DAF8F3
:103110004992248000207047F2E710F0004248BF37
:103120004042B0FA80F310FA03F10AD0C3F11D0354
:1031300003F5806302EB03524FEA415002EBD121C9
:1031400070474FF000007047B0FA80F310FA03F1B7
:103150000AD0C3F11D0303F580634FEA03524FEA1F
:10316000415002EBD12170474FF000007047000042
:1031700070B5DFF848C11CEA111E1EBF1CEA13150A
:103180009EEA0C0F95EA0C0F00F06F8081EA0304B1
:103190004EEAD47EAE4421EA4C1123EA4C1341F4AA
:1031A000801143F48013AEF17F7EA1FB024CA0FBA3
:1031B0000365361955EB0C05A1FB034C4CF10003DC
:1031C000A0FB021C16EB0C06654153F100030942FB
:1031D00018BF46F0010613F4007F0BD14FEA03310C
:1031E0004FEA053041EA155140EA165034036FF0BA
:1031F00003020AE04FEAC3214FEAC52041EA5551D4
:1032000040EA5650F4026FF0020202EB2E4201EB4C
:10321000025585EACE710AD05FEA440C18BF24F04B
:10322000004450F1000041F1000120EAD47040F266
:10323000FE7C624500D270BDA84214BF4FF08044AE
:103240004FF04044002E08BF0024BEF1806FA8BF9D
:10325000A1F1C041BDE8704080F2828001F1C0411F
:1032600001F000414FF0000070470CEA13159EEA90
:103270000C0F18BF95EA0C0F06D081EA030E4FF031
:1032800000000EF0004170BD00F01CF88900013E06
:1032900000F007B800F009B84FEA430C5FEA5C5C45
:1032A00008D081EA030100F05BB84FEA410C5FEA05
:1032B0005C5CF6D102494FF0000070470000FF0748
:1032C0000000F87F0EF1020E2EF0030E5EF8046B84
:1032D000364205D4012A43EB030515F5001F12D829
:1032E000012841EB010C1CF5001F0CD80ED14FEA50
:1032F000D17C0CEB4C0C0CF1020C15F5001F08BF37
:103300004CEBD37C04E04FF0080C01E04FEAD37C97
:103310000CEB4C0526FA05F606F00706B6F1040C90
:1033200006D20EEB860CBDE870404CF0010C6047F5
:10333000DFE80CF0090B02024FF00041A1F500217B
:103340004FF0000070BD19461046012851EB0104F2
:1033500018BFD4F5001484BF002001F0004170BDF7
:103360000808A0F500114FEA3101704710B591EA45
:10337000030F81F000413FF59FAC83F0004300F064
:1033800009B8000010B591EA030F48BF83F000436D
:103390003FF592AC841A71EB030C07D28CF0004C11
:1033A000121943EB0C03001B61EB0C014FEA1154A3
:1033B000A4EB135CDFF8A4E11EEA430F18BF9EEAFA
:1033C000445F00F0B48021EA045123EA6E035242C4
:1033D000C3EB6E0338BF5B1EDCF1200E25D322FA4F
:1033E0000CFE10EB0E0043FA0CFE41EB0E01CCF18B
:1033F000200E03FA0EFE10EB0E00CCF1200E51F160
:10340000000129D401EB045112FA0EF2BDE810407C
:1034100058BF7047401C1CBFB2F1004F70470028D6
:103420000CBF491C20F00100704712EB020E43EB69
:10343000030218BF4FF0010E4EEA4202ACF1200C1D
:10344000DCF11E0E56D943FA0CFE10EB0E00CCF147
:103450001E0E51F1FF31D5D50EF1010E12FA0EFEFE
:10346000404141EB010101EB445C5FEA5C5C10D937
:1034700001EB045110EBDE7038BFBEF1004FBDE828
:10348000104018BF704700280CBF491C20F00100F5
:10349000704734D24FEAD42C24F4006411F50011A3
:1034A0001BD0B1FA81F20B3AA41AA41ED2F1200368
:1034B000914030FA03F31943904001EBCC7101EBDA
:1034C0000451002CBDE81040A8BF704701F1C04175
:1034D00001F000414FF000007047B0FA80F310FA9D
:1034E00003F102D1BDE810407047E41A173C4805CB
:1034F000C90AE2E701EB0451BDE8104070474910EA
:103500004FEA300001EB0451BDE8104002E04FF0FB
:10351000000170474A0008BF0042F8D0B2F5001F12
:1035200028BF704701F000414FF0000070479EEA4D
:10353000445F07D011EA5E0FBDE8104004BF0021D0
:1035400000207047BDE8104070B5FFF7BBFE00BF1C
:1035500040DFF63E104683F0004170470000E0FF78
:103560000CF00F03092B08BF082000F059800A2B2C
:103570000BD0082B18BF704708BF1CF0400F0AD0B3
:103580004FF000004FF0000170471CF0400F18BFD3
:103590004FF0004070471CF0100F08D000F07F4241
:1035A00020F0704342EAD3014FEA4370704700F0C5
:1035B000604021F07F4242EA000201F07F4040EA91
:1035C000727070474FF0FF0C4CF4E06C1CEA115322
:1035D0001CBF9CEA030C9445C2BFDA4201EB0251C6
:1035E0007047002B0DD0BCF1000F0FD001F000414F
:1035F000002AA4BF41F0E04141F07F614FF000009C
:10360000704701F000414FF00000704750EA01336D
:103610004FF09B0C18BF4CF0806C7FF4EDAB704703
:103620001CF4801F11D01CF4E02F03D06FEACC31C2
:10363000490070474FF04050EFF3008222F0704293
:1036400042EA000282F3008870474FF000007047A2
:103650004C5555555555A53F7751C1166CC156BFB0
:103660009015CB19A001FA3EAD529C804F7E92BEC0
:10367000C4B1B4BD9EEE213ED43888BEE9FAA8BDDF
:1036800000004054FB21F93F3163621A61B4D03D20
:103690000000601A61B4D03D7370032E8A19A33BF9
:1036A0000000002E8A19A33BC14920259A837B394B
:1036B00000000000000000006E83F9A22915444EAE
:1036C000D15727FCC0DD34F5999562DB4190433C2E
:1036D000AB6351FE61C5BBDE3A6E24B7E0D24D420A
:1036E000EA2E49061C92D1091CEB1DFE3EA729B10A
:1036F000F53582E88444BB2E26709CE9417E5FB498
:1037000039D69139F43953838B5F849C3B28F9BDBA
:10371000FF97F81F0F9805DE8B112FEF1F6D0A5AC8
:10372000CF7E366DB709CB27663F464F2DEA5F9EA9
:10373000C7BA27757BF1E5EBF739073DEA92528A64
:10374000B15FFB6B085D8D1F463003560000000023
:10375000A6F810111111813FD561C119A0012ABF2E
:103760007DFEB157E31DC73EEB9C2B8AE6E55ABEB2
:103770007CD5CF5A3AD9E53DA83800080000002092
:103780005C000000FC000008043900080004002070
:10379000D879000018010008100100004300000063
:1037A000F8FFFFFF00404040404040404040414162
:1037B0004141414040404040404040404040404006
:1037C00040404040400502020202020202020202A0
:1037D000020202020220202020202020202020029D
:1037E000020202020202909090909090101010102D
:1037F00010101010101010101010101010101010C9
:10380000020202020202888888888888080808085C
:103810000808080808080808080808080808080828
:103820000202020240000000000000000000000050
:103830000000000000000000000000000000000088
:103840000000000000000000000000000000000078
:103850000000000000000000000000000000000068
:103860000000000000000000000000000000000058
:103870000000000000000000000000000000000048
:103880000000000000000000000000000000000038
:103890000000000000000000000000000000000028
:1038A00000000000000000001201100102000040B2
:1038B000830425F100000000000109024300020119
:1038C00000803209040000010202010005240010FA
:1038D0000105240100010424020605240600010755
:1038E00005820340000209040100020A00000007EB
:1038F00005810240000007050302400000000000AF
:0439000000127A0037
:040000050800016D81
:00000001FF
