:020000040800F2
:10000000687200206D010008750100087701000882
:10001000790100087B0100087D0100080000000054
:100020000000000000000000000000007F01000848
:10003000810100080000000083010008850100081C
:100040008701000887010008212E00080000000039
:1000500000000000C50A00088701000887010008A9
:1000600087010008000000008701000887010008E0
:1000700087010008000000008701000887010008D0
:1000800087010008870100080000000087010008C0
:1000900087010008000000000000000000000000D0
:1000A00000000000000000000000000087010008C0
:1000B0008701000887010008870100088701000800
:1000C00000F002F800F043F80AA090E8000C824427
:1000D0008344AAF10107DA4501D100F038F8AFF204
:1000E000090EBAE80F0013F0010F18BFFB1A43F016
:1000F0000103184788420000A8420000103A24BFBC
:1001000078C878C1FAD8520724BF30C830C144BF7C
:1001100004680C60704700000023002400250026BE
:10012000103A28BF78C1FBD8520728BF30C148BF5A
:100130000B6070471FB500F0DBF9040000200021C0
:1001400003F096FB401C60601FBD10B510BD00F0B1
:10015000AAF91146FFF7EEFF02F07CFF00F0DAF992
:1001600003B4FFF7F2FF03BC00F0DEF90948804753
:1001700009480047FEE7FEE7FEE7FEE7FEE7FEE789
:10018000FEE7FEE7FEE7FEE704480549054A064BA1
:100190007047000005180008C10000086812002020
:1001A00068720020683200206832002070B5064670
:1001B00000F0A4F80468054630460A22002100F049
:1001C000ACF82C6070BD30B505460B462A4613F8D6
:1001D000014B12F8010B08B1A042F8D01CB1002865
:1001E00002D06D1CF1E7284630BD032A40F2308072
:1001F00010F0030C00F0158011F8013BBCF1020F68
:10020000624498BF11F801CB00F8013B38BF11F8E8
:10021000013BA2F1040298BF00F801CB38BF00F8FF
:10022000013B11F0030300F0B080083AC0F00880F1
:1002300051F8043B083A51F804CBA0E80810F5E760
:10024000121D5CBF51F8043B40F8043BAFF3008043
:10025000D20724BF11F8013B11F801CB48BF11F8B8
:10026000012B24BF00F8013B00F801CB48BF00F888
:10027000012B70474FF0013C50F8042B51F8043B20
:100280009A4221D1A2EB0C03934313EACC1317D16A
:1002900050F8042B51F8043B9A4215D1A2EB0C0301
:1002A000934313EACC130BD150F8042B51F8043BC1
:1002B0009A4209D1A2EB0C03934313EACC13DBD08F
:1002C0004FF00000704700BFD01A01BAB1FA81F1B7
:1002D00001F0180122FA01F0CB40DBB2C0B2C01A23
:1002E000C1F120012CFA01F3D11A914311EAC31193
:1002F000E6D170477047704770470000004870476C
:100300000004002010B5FFF7F9FF006810BD10B51C
:100310000446FFF7F3FF046010BD2DE9F047914656
:100320000F4680460446002614F8015B2DB100F00C
:1003300063F80068405DC007F6D12B2D02D02D2D4B
:1003400018D0641E4A463946204600F05DF827B1B1
:100350003968A14201D1C7F800804FF0020471054D
:100360000BD54042002803DDFFF7C8FF0460A0075B
:10037000BDE8F08746F48066E4E70028F8DAFFF786
:10038000BDFF04606FF00040F2E710B5203AC0F006
:100390000B80B1E81850A0E81850B1E81850A0E858
:1003A0001850203ABFF4F5AF5FEA027C24BFB1E8F1
:1003B0001850A0E8185044BF18C918C0BDE8104034
:1003C0005FEA827C24BF51F8043B40F8043B08BF3D
:1003D0007047D20728BF31F8023B48BF11F8012B04
:1003E00028BF20F8023B48BF00F8012B70470000EF
:1003F000004870470004002010B500F079F8001D97
:1004000010BD00BF6D3400002DE9F05F8246154637
:100410008B4600270AF10104B9460078302801D044
:100420009DB113E014F8010B0127782803D0582858
:1004300001D045B10AE00DB1102D07D1002714F805
:10044000010B102502E0082500E00A250026B04631
:100450000EE005FB080005FB06F101271FFA80F8F6
:1004600001EB1046B6F5803F00D3B94614F8010BF6
:10047000294600F041F80028EBDABBF1000F05D067
:100480000FB1641E00E05446CBF80040B9F1000FF4
:1004900006D0FFF733FF02210160C81EBDE8F09FC0
:1004A00048EA0640FAE77546FFF7A2FFAE460500A8
:1004B0006946534620F00700854618B020B5FFF77F
:1004C00063FEBDE820404FF000064FF000074FF0FC
:1004D00000084FF0000BAC46ACE8C009ACE8C0091E
:1004E000ACE8C009ACE8C00921F007018D467047AF
:1004F00000487047200400203A2800D2303820F00D
:100500002002412A01D3A2F13700884201D34FF0E3
:10051000FF30704710B50446AFF300802046BDE8B9
:100520001040FFF71DBE000001491820ABBEFEE7DA
:10053000260002007047000082B08DF8070048F2E4
:100540000000C4F20800006800909DF8070028B180
:10055000FFE7009840F00100009004E0009820F0D0
:1005600001000090FFE7009848F20001C4F2080182
:10057000086002B07047000083B002908DF8071049
:1005800048F22000C4F20800006800909DF80700BF
:1005900030B1FFE70299009840EA8100009005E041
:1005A0000299009820EA81000090FFE7009848F245
:1005B0002001C4F20801086003B0704783B00290C4
:1005C00048F20002C4F20802106801900198032169
:1005D000CFF2FF11084001900299087891F801C00C
:1005E0000B796044B1F802C0604400EB03108B89C2
:1005F00018444B8A1844CB8A1844896900EB41613E
:1006000001980844019048F20401C4F20801086806
:100610000090009820F4003000900298037D00982C
:1006200000EB434000900298C08948F21003C4F2E6
:10063000080318600298008A48F20803C4F208030D
:1006400018600298806848F22803C4F20803186012
:10065000019810600098086003B0704748F20001EC
:10066000C4F208010020086048F20401C4F2080145
:10067000086048F20801C4F20801086048F210015D
:10068000C4F20801086048F21801C4F208010968C0
:1006900048F22001C4F20801086048F22801C4F2BF
:1006A0000801086048F20C01C4F20801086048F231
:1006B0001401C4F20801086048F21C01C4F20801E8
:1006C000096848F22401C4F20801086048F22C01CC
:1006D000C4F208010860704783B0029002998868EC
:1006E000CB680A694969184410440844019002998A
:1006F00008684A68896900EB027000EB4151019873
:10070000084401900020CFF21E00009000980021C4
:10071000C0F2E1110843009048F20001C4F2080160
:100720000868009A9043019A1044086003B070472B
:1007300081B00090009900200860009948600099FD
:1007400088600099C8600099086100994861009923
:10075000886101B07047000081B0009000990020CE
:1007600008700099487000994880009908710099B4
:100770008860009988810099C88100990882009951
:100780004882009908750099C8820099886101B073
:100790007047000082B08DF807000020C4F2090005
:1007A000006800909DF8070028B1FFE7009840F02E
:1007B0000800009004E0009820F008000090FFE797
:1007C00000980021C4F20901086002B070470000DF
:1007D00082B08DF807000021C4F20901086800907A
:1007E000009820F0020000909DF807200098104427
:1007F00000900098086002B0704700000421C4F225
:100800000901002008600821C4F2090108600021E4
:10081000C4F209010860704781B08DF803008DF8BB
:1008200002109DF8020050B1FFE79DF8031001206F
:10083000884048F22801C4F20201086009E09DF8EE
:1008400003100120884048F22C01C4F20201086024
:10085000FFE701B07047000082B00190009101985D
:10086000007A032805D1FFE7019800680099086025
:1008700009E0019A106851690139127A91400844DF
:1008800000990860FFE70198007C042806D1FFE783
:10089000019840680C300099486014E00198407A53
:1008A000032805D1FFE7019840680099486009E0F6
:1008B000019A506851690139527A9140084400996F
:1008C0004860FFE7FFE701990A7A4B7AC86840EA77
:1008D000837040EA82600A6A1043CA6910438A69D9
:1008E00010434B696FF00F0202EB03121043097CB7
:1008F00008430099886002B07047000080B584B05A
:100900008DF80F008DF80E1002929DF80E0060B960
:10091000FFE702989DF80F2040F60041C2F2000167
:1009200001EB0211FFF798FF0EE048F20C00C4F251
:10093000020000689DF80F1000EB01100190029872
:100940000199FFF789FFFFE704B080BD80B548F249
:100950000403C4F202030020186048F20801C4F244
:100960000201086048F21401C4F20201086048F272
:100970001801C4F202014FF0FF30086048F2200174
:10098000C4F20201086048F22C02C4F202021060B4
:1009900048F23402C4F20202106048F23C02C4F28F
:1009A0000202106048F24C0CC4F2020C0122CCF896
:1009B00000201A60086048F22801C4F202010860B1
:1009C000052000F045F980BD82B08DF806008DF855
:1009D00005109DF80500013801460091072868D8E8
:1009E0000099DFE801F0040E1825323F4C5948F217
:1009F0000000C4F20200006800F001008DF807005A
:100A00005BE048F24C00C4F2020001680120884318
:100A10008DF8070051E048F22800C4F20200006897
:100A20009DF80610C84000F001008DF8070044E072
:100A300048F22000C4F2020000689DF80610C84089
:100A400000F001008DF8070037E048F21000C4F212
:100A5000020000689DF80610C84000F001008DF803
:100A600007002AE048F21800C4F2020000689DF86E
:100A70000610C84000F001008DF807001DE048F2A4
:100A80003000C4F2020000689DF80610C84000F073
:100A900001008DF8070010E048F23800C4F20200AF
:100AA00000689DF80610C84000F001008DF80700AE
:100AB00003E000208DF80700FFE79DF8070002B073
:100AC0007047000080B50B200721FFF77DFF48B974
:100AD000FFE741F2EC12C2F200020B200121FFF706
:100AE0000DFF08E041F23422C2F200020B20002187
:100AF000FFF704FFFFE780BD80B584B08DF80F00DD
:100B0000029140F60040C2F2000048F20801C4F22F
:100B1000020108600298006868B1FFE70298006867
:100B20009DF80F2040F60041C2F2000101EB0211D6
:100B3000FFF792FEFFE70298406880B1FFE748F2B6
:100B40000C00C4F2020000689DF80F1000EB0110C9
:100B50000190029840680199FFF77EFEFFE7029836
:100B6000806840F0010048F20401C4F2020108600C
:100B70000298407B01280AD1FFE79DF80F10012061
:100B8000884048F21801C4F20201086009E09DF8AB
:100B90000F100120884048F21C01C4F202010860D5
:100BA000FFE79DF80F10012000FA01F148F224023E
:100BB000C4F2020211609DF80F10884048F228012B
:100BC000C4F2020108600298807B50B9FFE79DF8EB
:100BD0000F100120884048F23401C4F2020108607D
:100BE00009E09DF80F100120884048F23001C4F25E
:100BF00002010860FFE70298007B01280AD1FFE7A5
:100C00009DF80F100120884048F23801C4F202011B
:100C1000086009E09DF80F100120884048F23C016F
:100C2000C4F202010860FFE704B080BD81B000900B
:100C30000099002008600099486000998860009938
:100C40000873009948730099887301B070470000D9
:100C500081B08DF803009DF9031001F01F020120FF
:100C600090404A094EF28021CEF2000141F8220064
:100C700001B0704781B08DF803009DF9031001F0B9
:100C80001F02012090404A094EF28011CEF200016D
:100C900041F8220001B0704781B08DF803009DF942
:100CA000031001F01F02012090404A094EF200118A
:100CB000CEF2000141F8220001B0704781B08DF8FA
:100CC00003009DF9031001F01F02012090404A0922
:100CD0004EF20011CEF2000141F8220001B070473F
:100CE00081B08DF803009DF9031001F01F0201206F
:100CF00090404A094EF20011CEF2000141F8220064
:100D000001B0704781B08DF803009DF9031001F028
:100D10001F02012090404A094EF20011CEF200015C
:100D200041F8220001B0704782B08DF807000091B1
:100D30009DF90700B0F1FF3F0CDCFFE70098400190
:100D40009DF8071001F00F014EF61452CEF200028A
:100D5000885409E0009840019DF907104EF20042C6
:100D6000CEF200028854FFE702B0704781B00090D5
:100D700000990020C86000990861009948600099B6
:100D8000086000998860009948610099886100991D
:100D9000C86101B0704700008EB00D900C910D98A5
:100DA00040680B900D9880680A900D98C068099073
:100DB0000D98006908900D98406907900D9880691A
:100DC00006900D98C06905900020039001200290C4
:100DD000032001904FF0011000900C9800880490BF
:100DE000FFE70498002865D0FFE79DF81000C007D2
:100DF00000284ED0FFE70B98029988430C99897818
:100E0000039A914008430B900A98019988430C99E2
:100E1000097A039A5200914008430A90099802996E
:100E200088430C99897A039A91400843099008985D
:100E3000009988430C99039A02F1100CCB78097938
:100E400003FA0CF31843914008430890079800995F
:100E500088430C99039A02F1100C4B79897903FAB3
:100E60000CF3184391400843079006980199884372
:100E70000C99497A039A52009140084306900598CC
:100E8000029988430C99C979039A914008430590C7
:100E9000FFE70298400002900198800001900098BE
:100EA00040000090039801300390FFE70498400849
:100EB000049096E70B980D9948600A980D99886000
:100EC00009980D99C86008980D99086107980D99BF
:100ED000486106980D99886105980D99C8610EB012
:100EE0007047000082B001900091009A0199086853
:100EF0009043086002B0704782B001900091009862
:100F00000199096808430199086002B07047000020
:100F100081B08DF803009DF803008821C4F24021C0
:100F2000086001B07047000083B08DF80B0001919C
:100F30000C21C4F2020108680090009820F0030020
:100F400000909DF80B2000981043009000980860D6
:100F50000421C4F2020108680090009820F4706037
:100F60000090019A009840EA0220009000980860E2
:100F70008820C4F24020006840B1FFE78C21C4F211
:100F800040210120086000200860FFE703B070479F
:100F900080B584B000200390FFE7212000F062F8C4
:100FA0008DF80A00039801300390FFE703990020B1
:100FB000490A0229019007D8FFE79DF80A00B0FA14
:100FC00080F040090190FFE70198C0070028E4D1B4
:100FD000FFE7212000F046F820B1FFE701208DF85F
:100FE0000B0003E000208DF80B00FFE79DF80B00DD
:100FF00004B080BD81B08DF803009DF8030040F27D
:101000008811C4F24021086001B0704782B08DF8A9
:1010100007000C21C4F2020108680090009820F03B
:10102000F00000909DF80720009840EA0210009020
:101030000098086002B0704782B0ADF806000C213D
:10104000C4F2020108680090009820F440700090FB
:10105000BDF806200098104300900098086002B088
:101060007047000083B08DF80B009DF80B0000F076
:10107000E000202806D1FFE70020C4F2020000684B
:10108000019006E048F23C00C4F20D0000680190B7
:10109000FFE701989DF80B1001F01F01C840C00741
:1010A00020B1FFE701208DF8030003E000208DF858
:1010B0000300FFE79DF8030003B0704782B08DF88E
:1010C00007000821C4F20201086820F0030008604C
:1010D0009DF8070001460091012804D0FFE7009821
:1010E000022808D00FE00821C4F20201086840F08D
:1010F0000100086008E00821C4F20201086840F01D
:101100000300086000E0FFE702B0704780B584B0DC
:1011100000200390FFE72220FFF7A4FF8DF80A00CC
:10112000039801300390FFE703990020490A022940
:10113000019007D8FFE79DF80A00B0FA80F0400957
:101140000190FFE70198C0070028E4D1FFE72220C3
:10115000FFF788FF20B1FFE701208DF80B0003E0C7
:1011600000208DF80B00FFE79DF80B0004B080BD58
:1011700082B001908DF803109DF8030040B1FFE7A5
:10118000019A1C21C4F2020108681043086007E0BC
:10119000019A1C21C4F20201086890430860FFE72D
:1011A00002B0704780B588B0079007994CF2503074
:1011B00090FBF1F24FF4FA7090FBF2F04BF6500313
:1011C000C0F21E5345F62942CCF28F2201FB0231B8
:1011D0004FEAB102411C45F62843C0F28F239A42E0
:1011E00088BF084602F093FD48F26E62CFF21B0200
:1011F00042F2F913C4F2190302F0B4FD0022019285
:1012000044F20003C4F27F0302F0F8FB02460198A7
:1012100002920A460299059204910390FFE703980F
:10122000B0F5FA7F20DAFFE7039802F070FD049A28
:10123000059B02F097FD02F0CBFA002244F2000376
:10124000C4F29F0302F08EFD02F032FD00F5FA6059
:10125000039A40F20071C2F2000121F81200FFE788
:10126000039801300390DAE740F20071C2F2000106
:101270004FF4FA600880A1F8E60308B080BD0000D2
:1012800080B586B01020C0F2020001210591FFF761
:101290006FFF05994FF0C070FFF76AFF4EF60C51D3
:1012A000CEF2000140F20050C0F2FA5008604EF653
:1012B0000851CEF200014FF0006008604EF280212C
:1012C000CEF200014FF0FF3008604EF28011CEF2F6
:1012D000000108604EF20011CEF200014FF4003020
:1012E00008600020C4F20C000090FFF73FFD00985A
:1012F00041F20801C2F20001032202920A80002298
:1013000003928A708A72FFF747FDFFF7A7F941F24F
:101310008010C2F200000190FFF70AFA0198FFF76F
:10132000DBF941F29C10C2F200000490FFF714FABE
:10133000029A039904980170082343704FF40073D4
:10134000438001718260418201754FF4A041C182E6
:1013500002218161FFF732F905990420FFF70CF9AA
:1013600006B080BD80B584B01020C0F20400012119
:101370000391FFF7FDFE03994FF00070FFF7F8FEB1
:1013800048F20000C4F20C000190FFF7EFFC019856
:10139000039A41F20801C2F200010A80002202927F
:1013A0008A708A72FFF7F8FCFFF728FA0298FFF7B5
:1013B0000FFA0398FFF7EEF904B080BD2DE9F0476E
:1013C00088B040F22010C0F2100001273946FFF724
:1013D000CFFE4EF28021CEF200014FF0FF300860C8
:1013E0004EF28011CEF200010860FFF7AFFA41F231
:1013F000B810C2F200000090FFF718FC009941F20B
:101400001022C2F2000248F21808C4F20808C2F81A
:10141000008040F26050C2F20000506080255561AB
:1014200003230193137257724FF08856D6604FF41E
:10143000203EC2F818E04FF48024D4614FF4000C31
:10144000CDF810C0C2F820C0137441F2C810C2F227
:101450000000C0F8008040F26048C2F20008C0F806
:101460000480456103724772C660C0F818E0C46129
:10147000C0F820C003740A6048600020029008731E
:10148000487388730820FFF737FB48F22401C4F241
:10149000020105914FF48070086048F21C01C4F20B
:1014A00002010691086041F25820C2F20000039048
:1014B000FFF7BCFB019B02980399DDF810E041F2B5
:1014C0003422C2F2000240F2007AC2F2000AC2F8EC
:1014D00000A040F20809C4F20909C2F804904FF4D0
:1014E000FA78C2F8148017725372D6604FF48035C0
:1014F0009561D461C2F820E0137441F2EC1CC2F291
:10150000000CCCF800A0CCF80490CCF814808CF837
:1015100008708CF80930CCF80C60CCF81850CCF876
:101520001C40CCF820E08CF810300A600873487337
:1015300088730B20FFF7E0FA059A06994FF40060D4
:101540001060086005200790FFF7B8FB079864213A
:10155000FFF7EAFB08B0BDE8F087000080B584B073
:101560004FF4004001210391FFF702FE48F2000012
:10157000C4F20700029000F04BFA0298002100919B
:1015800000F072F940F2E860C2F20000019000F051
:1015900005FA009A01990298CA800A8130238B814A
:1015A000CA810A8013228A8010224A8000F0CAF978
:1015B0000F20FFF795FB0298039A022100F00CFA26
:1015C0000298039900F0A4F904B080BD80B58EB0F4
:1015D0000120FFF773FDFFF799FD01282FD0FFE7EA
:1015E0004FF4000001210791FFF7C2FD0798042185
:1015F000ADF82C108DF82E0003218DF835108DF8E4
:10160000360048F20000C4F20B000BA9FFF7C4FB40
:10161000FFE748F20000C4F20B000490042105919A
:10162000FFF76AFC42F21070069001F0E9FC0498A2
:101630000599FFF757FC069801F0E2FCE9E7022064
:101640000721FFF771FC0120FFF762FCFFF7A0FC08
:1016500001282FD0FFE74FF4000001210391FFF78D
:1016600087FD03980421ADF820108DF82200032196
:101670008DF829108DF82A0048F20000C4F20B0002
:1016800008A9FFF789FBFFE748F20000C4F20B004E
:10169000009004210191FFF72FFC42F2107002909C
:1016A00001F0AEFC00980199FFF71CFC029801F0D4
:1016B000A7FCE9E70020FFF7A9FC0120FFF79AFC4F
:1016C0004FF48070FFF7B8FC0EB080BD80B50420E9
:1016D0000121FFF74DFD41F2A400C2F200000321F9
:1016E00001700521417041F2B001C2F200011022E7
:1016F0008A6020234B600A6000F01EFD1F2001F06D
:101700004DFC00F04DFD0220FFF7FCFA00F00AFC52
:1017100080BD000085B00C20C4F202000068800784
:10172000002806D5FFE742F20040C0F2F400049022
:1017300005E041F20020C0F27A000490FFE70C209F
:10174000C4F202000068C00720B1FFE70498400817
:101750000490FFE7049803900C20C4F20200006894
:10176000400700280DD5FFE70420C4F202000068FE
:10177000C0F303200130019001990398484303907E
:10178000FFE70C20C4F202000068C0F3012001460C
:10179000009140B1FFE7009801280ED0FFE70098C4
:1017A00002281CD023E040F20001C2F2000141F205
:1017B0000020C0F27A00086021E003980C21C4F2F6
:1017C00002010968C1F303110131B0FBF1F002908D
:1017D000029840F20001C2F2000108600FE040F2FE
:1017E0000001C2F200014FF40040086007E040F23F
:1017F0000001C2F2000149F640400860FFE705B071
:101800007047000080B51C21C4F20201102008605E
:101810000C21C4F20201002008600421C4F202017C
:1018200008600821C4F2020108601021C4F202011C
:1018300008601421C4F2020108601821C4F20201F8
:1018400008602021C4F2020108602421C4F20201D0
:1018500008602821C4F2020108602C21C4F20201B0
:101860000860FFF757FF80BD83B002908DF8071026
:101870002420C4F202000068009002980021C4F203
:10188000070188420ED1FFE7009820F0FF0000908A
:101890009DF80710009808430090009840F0807071
:1018A00000902EE0029848F20001C4F2070188423D
:1018B0000FD1FFE7009820F47F4000909DF80710BB
:1018C000009840EA01200090009840F000700090DD
:1018D00016E002980021C4F2080188420FD1FFE708
:1018E000009820F47F0000909DF80710009840EACF
:1018F00001400090009840F080600090FFE7FFE713
:10190000FFE700982421C4F20201086003B0704789
:1019100083B002908DF807100298C06800909DF87F
:10192000070028B1FFE7009840F00100009004E0B4
:10193000009820F001000090FFE700980299C8602D
:1019400003B0704784B00390029102980088039915
:10195000086002984088039948600298808803993B
:1019600088600299C8880A8910444A8910448A8983
:101970001044C9890844019001980399C8600299EC
:101980000A8A488A00EB02108A8A1044C98A0844ED
:10199000009000980399086504B0704781B00090EA
:1019A000009900200880009948800099888000995B
:1019B000C880009908810099488100998881009920
:1019C000C88100990882009948820099888200990C
:1019D000C88201B07047000084B0039002918DF876
:1019E00007200398C06D00909DF8070028B1FFE71D
:1019F000029900980843009004E0029900988843F7
:101A00000090FFE700980399C86504B07047000094
:101A100081B0009000990020C8600099086000998A
:101A200048600099886000990862009948620099AE
:101A300088620099C8620099086300994863009918
:101A400088630099C8630099086600994866009900
:101A500088660099C86600990861009948610099F4
:101A600088610099C86100990867009948670099E2
:101A700088670099C86700990864009948640099CC
:101A800088640099C86400990865009948650099C0
:101A900088650099C86501B07047000082B0019068
:101AA0001021C4F2020108680090009840F4807090
:101AB000009001980278009810430090009840F040
:101AC00004000090009808600421C4F20201086834
:101AD0000090009840F00100009001984278009832
:101AE00040EA0210009000980860FFE70020C4F26E
:101AF00002000068C00708B9FFE7F7E702B07047C7
:101B000080B584B00020ADF80E0041F2A600C2F20C
:101B100000004188ADF80C108188ADF80A10C1882A
:101B2000ADF80810407801460191232800F2A88002
:101B30000199DFE801F012161A3456A5A5A5A5A54E
:101B4000A5A5A5A5A5A5A5A5A5A5A5A5A5A5A5A545
:101B5000A5A5A5A5A5A55A749DA10120ADF80E00C7
:101B600092E00120ADF80E008EE0BDF808000228DA
:101B700010D1FFE7BDF8082040F2E061C2F2000199
:101B800041F6DD43C0F60003002001F047F8ADF850
:101B90000E0003E00220ADF80E00FFE774E0BDF890
:101BA0000800022818D1FFE70120ADF80E00BDF8AB
:101BB0000E0080B9FFE7BDF8082040F2E061C2F2F4
:101BC000000142F21913C0F60003002000F0F0FFFC
:101BD000ADF80E00FFE703E00220ADF80E00FFE7CE
:101BE00052E00120ADF80E004EE0BDF808000728D5
:101BF00010D1FFE7BDF8082040F2E061C2F2000119
:101C000041F6DD43C0F60003002001F007F8ADF80F
:101C10000E0003E00220ADF80E00FFE734E0BDF84F
:101C2000080007281FD1FFE7BDF80A0040F2E06175
:101C3000C2F2000100F0E2F8ADF80E00BDF80E00AF
:101C400080B9FFE7BDF8082040F2E061C2F2000170
:101C500042F21913C0F60003002000F0A9FFADF80E
:101C60000E00FFE703E00220ADF80E00FFE70BE0F7
:101C70000020ADF80E0007E00120ADF80E0003E0F3
:101C80000120ADF80E00FFE7BDF80E0008BBFFE72E
:101C9000BDF80800E8B9FFE741F2A600C2F2000073
:101CA00000780006002808D5FFE7002318461946EB
:101CB0001A4600F0B3FF009007E0002318461946CB
:101CC0001A4600F075FF0090FFE70098ADF80E008F
:101CD000FFE7BDF80E0004B080BD000080B586B0FF
:101CE0008DF817000491039241F2A600C2F20000A1
:101CF000407801460191022804D0FFE7019820288E
:101D000004D00EE00120ADF80A000EE041F2A6007A
:101D1000C2F200008088049900F062F9ADF80A0070
:101D200003E00220ADF80A00FFE7BDF80A0048B959
:101D3000FFE79DF81700002319461A4600F038FF08
:101D4000009003E0BDF80A000090FFE7009880B221
:101D500006B080BD80B586B0ADF81600ADF81410A1
:101D6000ADF8122000200390ADF806009DF8160093
:101D700020B1FFE70120ADF8060020E0BDF8160015
:101D8000000A01460091012804D0FFE700980228CC
:101D900008D00FE040F24700C2F20000039012208A
:101DA00002900BE040F20400C2F2000003904320D6
:101DB000029003E00120ADF80600FFE7FFE7BDF861
:101DC0000600B0B9FFE70298BDF81210884204D9A6
:101DD000FFE7BDF812000290FFE70399029A42F272
:101DE0001913C0F60003002000F0E2FEADF8060073
:101DF000FFE7BDF8060006B080BD000082B0ADF878
:101E000004000091BDF8040020B1FFE70220ADF806
:101E100006000CE0009941F20002C2F200021068D4
:101E200052684A6008600020ADF80600FFE7BDF880
:101E3000060002B07047000080B584B003900291A4
:101E40008DF807200398029900F0E8F841F2980213
:101E5000C2F20002002010819DF80710B1FA81F152
:101E600049094902518104B080BD000080B584B0A9
:101E70008DF80D00029101920298019900F03CF852
:101E8000ADF80200BDF8020040B1FFE741F2980151
:101E9000C2F200014FF400704881FFE741F2980060
:101EA000C2F20000408980B9FFE741F29800C2F217
:101EB00000000168426841F66D63C0F6000303202C
:101EC00000F0ACFEADF80E0003E00020ADF80E000F
:101ED000FFE7BDF80E0004B080BD000083B08DF8B0
:101EE0000B000191009241F29801C2F20001002022
:101EF000088103B07047000080B582B00190009166
:101F0000019941F21400C2F200008022FEF76DF93F
:101F100041F27C11C2F2000101200860002002B0F1
:101F200080BD000080B584B000F046F9ADF80E0029
:101F3000BDF80E0050BBFFE7012001900521009184
:101F40000022029200F0BEFB0099029A022000F0EB
:101F5000B9FB0199029A032000F0B4FB41F298000A
:101F6000C2F20000408980B9FFE741F29800C2F256
:101F700000000168426841F66D63C0F6000303206B
:101F800000F04CFEADF80E00FFE7FFE7BDF80E00D5
:101F900004B080BD80B584B00390029141F29800F6
:101FA000C2F200000089ADF80600BDF8060098B93D
:101FB000FFE741F29801C2F200014FF4007008817E
:101FC0000399029A41F6DD63C0F60003012000F098
:101FD000EFFDADF80600FFE7BDF8060004B080BDD8
:101FE00082B0ADF804000091BDF8040020B1FFE715
:101FF0000220ADF806000CE0009908684A6841F23A
:102000000001C2F200014A6008600020ADF806003D
:10201000FFE7BDF8060002B07047000082B00190F3
:102020000091019841F29801C2F200010860009805
:102030004860002002B0704780B582B08DF805007E
:10204000ADF80210ADF800209DF8050002280BD174
:10205000FFE7BDF8020038B9FFE79DF8000000F087
:10206000FFFAADF8060003E00120ADF80600FFE737
:10207000BDF8060002B080BD80B584B00020ADF888
:1020800006000220FEF7F6FD41F2C800C2F2000091
:102090000068E8BBFFE741F2C801C2F2000101207D
:1020A000086000F0B7FE02909DF808004007002885
:1020B0000ED5FFE700F080F8ADF8060041F2BC0055
:1020C000C2F2000000218160806800F0F5FEFFE7A9
:1020D00000200390FFE7039803280AD8FFE79DF844
:1020E0000C00029900F07EFBFFE70398013003909B
:1020F000F1E7029820F0010000F068FF41F2C8010A
:10210000C2F20001002008600220FEF7C5FDFFE7D3
:10211000BDF8060004B080BD80B584B08DF80F0016
:10212000029101929DF80F00002319461A4600F013
:1021300075FD04B080BD000080B584B003900291AD
:102140000398FFF7ABFC00F06FFE4FF4803000F017
:102150009BFE0298006800F097FE02994868896823
:10216000084340F0010000F0B1FE05210022019279
:10217000104600F0A7FA019841F2A601C2F2000150
:1021800042F20D22C0F6000200F0D2FD019841F2A9
:10219000BC01C2F200010870886004B080BD00007C
:1021A00080B50C2000F070FE41F2BC01C2F20001CB
:1021B00002200870002080BD41F2BC01C2F2000183
:1021C000032008700020704780B582B08DF80500AC
:1021D000ADF80210ADF800209DF8050002280CD1E2
:1021E000FFE7BDF8020040B9FFE79DF800000121BC
:1021F00000F0B8FAADF8060003E00120ADF80600E3
:10220000FFE7BDF8060002B080BD000080B58CB0CD
:102210008DF82F000A910020ADF824000A9800786C
:1022200000F060008DF827000A98007800F0800028
:102230008DF826009DF827000146059150B1FFE773
:102240000598202800F0E281FFE70598402800F07B
:10225000E281E4E1002006900A984088ADF822006F
:102260000A988088ADF820000A98C088ADF81E0052
:102270000A98007800F01F008DF81D009DF81D00E1
:10228000042804DBFFE70220ADF82400CBE10A9824
:102290004078014604910C2800F28F810499DFE810
:1022A00011F00D0076008C019D008C01C400D4005B
:1022B000DF00E30009012801470167019DF82600BE
:1022C000802817D1FFE741F2BC00C2F2000000787D
:1022D000042813D1FFE79DF81D0001280AD0FFE76D
:1022E0009DF81D00022809D1FFE7BDF82000042851
:1022F00004DBFFE70120ADF8240047E00020ADF843
:102300002400BDF8240000283FD1FFE79DF81D0000
:102310000146039140B1FFE7039801280BD0FFE786
:10232000039802280ED01DE041F29401C2F2000190
:102330000020087017E041F29401C2F20001002071
:10234000087010E0BDF8200041F2CC02C2F2000299
:102350002C2100FB0120407841F29401C2F20001DF
:10236000087000E0FFE741F29401C2F20001002092
:1023700048709DF82F0042F21913C0F600030222A4
:1023800000F016FCADF82400FFE7FFE719E141F289
:10239000BC00C2F200000078042813D1FFE79DF8CA
:1023A0001D0001280AD0FFE79DF81D00022809D171
:1023B000FFE7BDF82000042804DBFFE70120ADF8AB
:1023C00024000AE09DF81D00BDF82210BDF8202071
:1023D000FFF732FEADF82400FFE7F2E041F2BC0067
:1023E000C2F200000078042813D1FFE79DF81D0019
:1023F00001280AD0FFE79DF81D00022809D1FFE758
:10240000BDF82000042804DBFFE70120ADF824001C
:102410000AE09DF81D00BDF82210BDF82020FFF74E
:10242000D3FEADF82400FFE7CBE00020ADF8240098
:10243000BDF8220041F2BC01C2F20001886042F204
:102440003160C0F600000690BBE0BDF82200BDF888
:102450002010BDF81E20FFF77DFCADF82400B0E091
:102460000120ADF82400ACE041F2BC00C2F2000053
:102470000078042807D1FFE741F29401C2F200017D
:102480000020087006E041F29401C2F20001012030
:102490000870FFE79DF82F0041F29401C2F200019D
:1024A00042F21913C0F60003012200F081FBADF8DF
:1024B000240086E0BDF8220038B9FFE741F2BC01F4
:1024C000C2F200010420087012E0BDF822000138B9
:1024D00018BF0120ADF82400BDF8240038B9FFE78B
:1024E00041F2BC01C2F2000105200870FFE7FFE7DE
:1024F00067E041F2BC00C2F200000078042804D179
:10250000FFE70120ADF8240011E041F29401C2F28E
:102510000001002008709DF82F0042F21913C0F648
:102520000003012200F044FBADF82400FFE748E07F
:1025300041F2BC00C2F200000078042804D1FFE799
:102540000120ADF8240012E0BDF820100020029018
:1025500039B9FFE7BDF82200B0FA80F040090290D7
:10256000FFE7029901208843ADF82400FFE728E047
:1025700041F2BC00C2F200000078042804D1FFE759
:102580000120ADF8240017E00120ADF82400BDF8CB
:10259000240080B9FFE79DF82F0041F29401C2F2B8
:1025A000000142F21913C0F60003022200F000FB02
:1025B000ADF82400FFE7FFE703E00220ADF82400B8
:1025C000FFE7BDF8240000BBFFE7BDF81E00E0B93F
:1025D000FFE70A9800780006002809D5FFE79DF874
:1025E0002F00069B0022114600F018FB019008E026
:1025F0009DF82F00069B0022114600F0D9FA0190A9
:10260000FFE70198ADF82400FFE70CE0FFF778FA48
:10261000ADF8240007E00120ADF8240003E002201B
:10262000ADF82400FFE7BDF824000CB080BD000029
:1026300080B584B08DF80F000291019241F2BC0088
:10264000C2F200000090806800F036FC00998A68B1
:102650000320002A18BF04200870002004B080BDA9
:1026600080B584B08DF80F009DF80F0041F2CC02C8
:10267000C2F200022C2100FB012002904FF4002046
:1026800001900298407E20B9FFE70298807E40B119
:10269000FFE7029901200870019840F002000190C4
:1026A00003E0029900200870FFE7029900200090E3
:1026B00048709DF80F00019900F038F8009804B0B8
:1026C00080BD000080B586B08DF81700049103929C
:1026D0009DF8170041F2CC02C2F200022C2100FB4F
:1026E00001200290029900200190486002998860C0
:1026F000029908610299C860029948610299C8610B
:1027000002990862029948620399029A91620299B9
:10271000487002990870029908769DF8170004998C
:1027200000F0ECFB019806B080BD000080B584B0DD
:102730008DF80F0002919DF80F0041F2CC02C2F219
:1027400000022C2100FB012001901F2000F03EFC24
:102750000199002008769DF80F00029900F0CEFB49
:1027600004B080BD80B584B08DF80D008DF80C10DC
:102770009DF80D0041F2CC02C2F200022C2100FBB8
:1027800001200290002001909DF80C00012808D142
:10279000FFE79DF80D0020B9FFE70120ADF80E001E
:1027A0001BE09DF80C00012804D0FFE70298807E12
:1027B00050B1FFE79DF80C0002994870029905207E
:1027C00008700A200190FFE79DF80D000199FFF7BE
:1027D000ADFF0020ADF80E00FFE7BDF80E0004B01D
:1027E00080BD000080B58CB08DF82D000A910020CE
:1027F0008DF82700ADF824009DF82D0000F0EEFACA
:1028000008909DF82D0000F0F7FA00F00300079003
:102810009DF82D0000F0B8FA06909DF82D0041F2C9
:10282000CC02C2F200022C2100FB012003909DF893
:102830002800C00720B1FFE7039901200876FFE7D1
:10284000FFE70398007801460291052800F29F8176
:102850000299DFE811F006000A004000C0002A01DA
:1028600084010020ADF82E009DE19DF8180080073E
:1028700000282FD4FFE70398007E58B3FFE707989E
:1028800002280ED1FFE70398407E50B1FFE703997D
:102890000320087003990020487601208DF8270056
:1028A00017E0079858B9FFE70398807E38B1FFE733
:1028B00003990420087001208DF8270008E001200A
:1028C000ADF824009DF82D000021FFF74BFFFFE736
:1028D000FFE7FFE75BE19DF818008007002847D479
:1028E000FFE70398007E002842D0FFE70798012801
:1028F0003ED1FFE79DF820004006002838D5FFE7CD
:102900000399C8680A691044C86003988168C06860
:10291000884226D3FFE70399002008700398C06916
:1029200050B1FFE7039841688268C3699DF82D00A4
:102930009847ADF82400FFE7BDF8240050B9FFE741
:102940000398007828B9FFE79DF82D00FFF788FE6F
:10295000FFE705E09DF82D000021FFF703FFFFE7EB
:1029600005E09DF82D00012100F082F9FFE731E03C
:102970009DF82000000760B3FFE70399002008706E
:102980000398806A60B1FFE70398D0F828C09DF8EB
:102990002D000899079A069BE047ADF82400FFE751
:1029A000BDF8240070B9FFE70398007848B9FFE745
:1029B0000399022008709DF82D00002100F058F9BD
:1029C000FFE705E09DF82D000021FFF7CBFEFFE7B4
:1029D000FFE7FFE7DBE09DF818008007002863D4DD
:1029E000FFE70398007E00285ED0FFE700200190FB
:1029F0008DF827009DF82D0000F0E2F901460198BE
:102A000004910590FFE70598049988420FD2FFE7EB
:102A10009DF82D0000F0C6F9039A5168D268059B15
:102A20001A448854FFE7059801300590EBE79DF8BC
:102A30002D00012100F082FA049A0399C86810441D
:102A4000C86003988168C068884226D3FFE703996D
:102A5000002008700398006A50B1FFE703984168AE
:102A6000C268036A9DF82D009847ADF82400FFE77F
:102A7000BDF8240050B9FFE70398007828B9FFE7B4
:102A80009DF82D00FFF7ECFDFFE705E09DF82D0018
:102A90000021FFF767FEFFE705E09DF82D0002210A
:102AA000FFF744FEFFE7FFE771E00398007E002890
:102AB00051D0FFE79DF82D0000F082F904900498B2
:102AC000082838D1FFE700200590FFE70598049912
:102AD00088420DD2FFE79DF82D0000F063F90399BD
:102AE0004969059A8854FFE7059801300590EDE79C
:102AF0009DF82D00012100F021FA03984169426AF6
:102B00009DF82D009047ADF82400BDF8240058B979
:102B1000FFE703980078042805D1FFE79DF82D0012
:102B2000FFF79EFDFFE705E09DF82D000021FFF770
:102B300019FEFFE70EE09DF82D000121009100F045
:102B4000FDF90098ADF824009DF82D000021FFF755
:102B500009FEFFE7FFE700208DF8270017E09DF84A
:102B600018008007002811D4FFE703984078012857
:102B700006D1FFE79DF82D000121FFF7F3FD04E0EA
:102B80009DF82D00FFF76CFDFFE7FFE7FFE7FFE78C
:102B90009DF8270000287FF454AEFFE7BDF824001D
:102BA000ADF82E00FFE7BDF82E000CB080BD000090
:102BB00080B588B08DF81F000691059204939DF8AA
:102BC0001F0041F2CC02C2F200022C2100FB0120C6
:102BD00003900398817E0120002918BF02208DF800
:102BE0000B0006980399486005980399886003993B
:102BF00040200861039900200190C860049803995F
:102C0000C8619DF81F009DF80B1000F031F8019885
:102C1000039A0221117008B080BD000080B586B013
:102C20008DF817000491039202939DF8170041F26A
:102C3000CC02C2F200022C2100FB0120019004987A
:102C400001994860039801998860019900200090DB
:102C500008610199C86002980199086201990120F0
:102C600048769DF81700FFF7FBFC009806B080BD82
:102C700080B586B08DF817008DF816109DF81700F6
:102C800041F2CC02C2F200022C2100FB0120049090
:102C90009DF81700012100F071F99DF8160001461A
:102CA000019140B1FFE70198012805D0FFE70198A5
:102CB000022806D00BE00AE09DF8170000F0CCF8DF
:102CC00005E09DF81700042100F018F9FFE7049AC9
:102CD0009168D06812691044884206D2FFE70499CF
:102CE000C86809690844009003E00498806800906F
:102CF000FFE7009802900498C0680390FFE70398EC
:102D0000029988420DD2FFE79DF81700049949689F
:102D1000039A895C00F022F9FFE7039801300390E1
:102D2000EDE79DF817000221FFF700FD06B080BD1A
:102D300080B586B08DF81700049103929DF81700B6
:102D400041F2CC02C2F200022C2100FB01200290D1
:102D500004980299486102990020019088600299C4
:102D600008610299C8600398029948620398002894
:102D700018BF0120029988769DF81700FFF770FCB4
:102D8000019806B080BD000081B08DF803009DF869
:102D90000300010140F20010C4F20100405801B0EC
:102DA0007047000081B08DF803009DF80300C10159
:102DB00040F28010C4F20100405801B0704700009A
:102DC00081B08DF803009DF80300C10140F28C1022
:102DD000C4F20100405801B07047000081B08DF886
:102DE00003009DF80300010140F20410C4F2010049
:102DF000405801B07047000081B08DF803009DF885
:102E00000300010140F20810C4F20100405801B073
:102E10007047000040F24810C4F20100006870479B
:102E200080B5FFF729F980BD80B582B0022000F09F
:102E30002BF800200190FFE70198C0087C2805D8F6
:102E4000FFE7FFE7019801300190F5E74FF400300C
:102E500000F01AF802B080BD82B08DF807009DF82E
:102E60000700000140F20011C4F20101085800906F
:102E7000009880F00400009000989DF8072012014F
:102E8000885002B07047000082B00190FFE740F226
:102E90008031C4F2010108680090BDF80420009858
:102EA00010430090BDF806200098904300900098D1
:102EB0000860FFE702B0704781B00090009840F2D0
:102EC0005011C4F20101086001B0704782B0019056
:102ED000FFE740F24011C4F2010108680090BDF81C
:102EE0000420009810430090BDF8062000989043FD
:102EF000009000980860FFE702B0704783B08DF83B
:102F00000B000191FFE79DF80B00000140F200115A
:102F1000C4F2010108580090BDF804200098104345
:102F20000090BDF8062000989043009000989DF80E
:102F30000B2012018850FFE703B0704782B08DF874
:102F40000700009100989DF80710CA0140F2901107
:102F5000C4F20101885002B07047000082B08DF8C1
:102F60000700009100989DF80710CA0140F2C011B7
:102F7000C4F20101885002B07047000082B08DF8A1
:102F80000700009100989DF80710CA0140F2D01187
:102F9000C4F20101885002B07047000082B0019075
:102FA000FFE740F24C11C4F2010108680090BDF83F
:102FB0000420009810430090BDF80620009890432C
:102FC000009000980860FFE702B0704781B0009061
:102FD000009840F24811C4F20101086001B0704746
:102FE00041F20001C2F2000144F24020C0F20F00A1
:102FF000086000200871487108208871704700003F
:1030000081B00090FFE70098411E009110B1FFE7EA
:1030100000BFF8E701B0704780B582B00190019819
:1030200044F27031C0F60001FDF7CDF801998842F5
:103030000ED1FFE701980930FDF7B8F8009000982D
:10304000642804DBFFE70098FEF7ACF8FFE7FFE732
:1030500002B080BD80B584B000200390FFF7C0FFB0
:10306000FEF70EF9FEF7AAF940F26060C2F2000026
:10307000012201921146FEF7DFFEFEF7A7FAFEF7E6
:1030800025FB6420FEF78EF8FEF76CF9FEF766FA72
:1030900001990B20FDF7C0FB0198FDF74DFA01994E
:1030A0000820FDF7B9FBFFE741F27C10C2F20000F7
:1030B0000068012827D1FFE700200090FDF73CFAC7
:1030C000009841F27C11C2F20001086041F2140044
:1030D000C2F20000FFF7A0FF00980290FFE70298FD
:1030E0007F280CDCFFE7029A40F26061C2F2000127
:1030F00000208854FFE7029801300290EFE701209A
:10310000FDF71AFAFFE7FFE708200721FDF75CFC4F
:1031100008B9FFE7F8E741F21022C2F200020820E6
:103120000021FDF7EBFB40F26050C2F200004FF4CB
:103130008071FEF72FFFFFE708200721FDF744FC11
:1031400008B1FFE7F8E741F2C812C2F20002082016
:103150000121FDF7D3FB40F26040C2F200004FF4C2
:103160008071FEF717FF9FE7490050EAC12018BFA2
:1031700004204A0D18BF40F0010040F2FF72B2EB8C
:10318000515F08BF40F00200012808BF05207047CA
:103190002DE9F74F144694B00021C4E902111599A6
:1031A000079121F00045C9498D4206DC1599C4E913
:1031B000000117B00020BDE8F08FC549DFF814A367
:1031C000A9423CDD0799C44E0029C44FC44A159951
:1031D000534619DD00F0D0FE554506D0C14AC24B1A
:1031E00000F0CAFEC4E900010AE04FF0D352BE4B22
:1031F00000F0C2FE32463B4600F0BEFEC4E90001CC
:1032000017B00120BDE8F08F00F048FB554506D00F
:10321000B44AB54B00F042FBC4E900010AE04FF0AC
:10322000D352B14B00F03AFB32463B4600F036FB3E
:10323000C4E9000117B04FF0FF30BDE8F08FAB4993
:10324000A942159978DB21F0004183468846A84AB7
:10325000A84B00F087FD0022A74B00F01FFB00F0F9
:1032600027FD099000F053FD06460F469C4A534641
:1032700000F078FD43465A4600F072FE80468A46CA
:10328000984A994B3046394600F06CFD2A0D0125CD
:103290000B924246534600F063FE032DC4E9000141
:1032A00039D00B98C1F30A51401A05EB4511113979
:1032B000814230DA9148C346784400EB0510CDF8DE
:1032C0000CA00C90D0E900233046394600F04AFDAE
:1032D00002460B46049106905846039900F04CFEB6
:1032E00080468A4602460B465846039900F044FE43
:1032F000049B069A00F040FE83460C9803913946E1
:10330000D0E90223304600F02DFD5A46039B00F021
:1033100033FE6D1CBDE707980028A2BF099817B0BF
:10332000BDE8F08F616881F000416160099817B0D5
:103330004042BDE8F08FFFE784461598C1F31301C2
:10334000C0F30A50A0F2F5304FEA601800F01F06F3
:10335000C6F12000139000200690079041F4801ED3
:1033600005206D4676B1664A08EB00017A4452F8B2
:10337000213002EB8101B3404A68139922FA01F12E
:10338000194305E05F4908EB0002794451F8221027
:10339000A1FB0E27A1FB0C131A449A4234BF012350
:1033A000002303EB070A05EB8003D3E901B70F44C1
:1033B0008F4234BF0121002193448B4411B19345C6
:1033C00002D903E0934501D2012100E00021C3E9C5
:1033D00001B7514445F82010011EA0F10100C1DCE5
:1033E0000298059F00F10050800F12900298DDE9CD
:1033F0000356800000F08BFC834628460D9100F0B8
:103400009DFC6FF01D0200F0D7FECDE90E013046A5
:1034100000F094FC6FF03D0200F0CEFE80468A463C
:10342000384600F08BFC6FF05D0200F0C5FE0746E9
:1034300042465346119100F031FADDE90E2300F0C7
:103440002DFA5A460D9B00F029FA00250E465A46E1
:1034500028460D9B00F090FDDDE90E2300F08CFD69
:103460004246534600F088FD3A46119B00F078FD35
:10347000DFF898A0244A534600F074FC07468846BB
:10348000234A244B3146284600F06CFC3A4643461A
:1034900000F004FA074688464FF0A84253463146EA
:1034A000284600F05FFC3A46434600F0F7F9159ACB
:1034B00012F0004F04D0129A81F000415242129251
:1034C000C4E90001129817B0BDE8F08FFB21E93F75
:1034D0007CD90240FB21F93F7370032E8A19A33B6C
:1034E000000040543163621A61B4D03DFB21394180
:1034F00083C8C96D305FE43F0000E03FBC0F0000AF
:10350000380F00001A0F0000182D4454FB21F93D1C
:103510003326A611460B113C2DE9FF4D21F0004842
:1035200007460C46B8F1795F08DA00F0C1FB0028C5
:1035300001BF0020324904B0BDE8F08D3A46234671
:103540001046194600F00EFC054602462D480E4670
:103550000B460621784400F05DF82A46334600F019
:1035600001FCDDE9022382468B463846214600F005
:10357000F9FB04460F4652465B462846314600F0AA
:10358000F1FB22463B4600F0F7FC07468A464FF027
:10359000FF322846314600F00FFE1B4A90450ADAFA
:1035A0003A46534600F0E8FC04B00022BDE8F04D76
:1035B000134B00F0D5BC154A4245A8BFA8F500152D
:1035C0004FF00004B8BF124D22462B4600F0D4FC49
:1035D0000646884622462B460020094900F0CCFCCE
:1035E00004460D463A4653463046414600F0C4FC78
:1035F00004B022462B46BDE8F04D00F0B1BC0000FF
:103600000000F03FF00C00003333D33F0000E93FEF
:103610000000D23F2DE9F0414F1E00EBC7010446E8
:10362000D1E9000115461E4637F006020DD02A46A4
:10363000334600F097FB7F1E04EBC703D3E900235A
:1036400000F02CF937F00602F1D1022F25D0042F1B
:1036500013D0062F18BFBDE8F0812A46334600F08C
:1036600081FBD4E90A2300F019F92A46334600F019
:1036700079FBD4E9082300F011F92A46334600F01B
:1036800071FBD4E9062300F009F92A46334600F01D
:1036900069FBD4E9042300F001F92A46334600F01F
:1036A00061FBD4E9022300F0F9F82A46334600F022
:1036B00059FBD4E90023BDE8F04100F0EFB8000069
:1036C0002DE9FF4D054621F0004084B00C46B0F1D5
:1036D000795F0BDA2846FFF747FD042808BF00F0A2
:1036E0006FF8284608B02146BDE8F08D2A460B4603
:1036F000104600F037FB06460F462A46234600F0E8
:1037000031FB804626488A4632463B4605217844AE
:10371000FFF780FF83461098029160B3214A224B45
:103720004046514600F01EFBCDE900015A46404696
:103730005146029B00F016FB82468846DDE90601F1
:103740004FF0FF3200F038FD5246434600F014FCC3
:1037500032463B4600F006FBDDE9062300F00CFC98
:10376000DDE9002300F008FC08B02A462346BDE846
:10377000F04D00F0F5BB0B465A463046394600F096
:10378000F1FA084A084B00F089F84246534600F027
:10379000E9FA08B02A462346BDE8F04D00F07EB8AD
:1037A000360C0000495555555555C5BF012200F04E
:1037B00003BD002213461046114600F01FB9000059
:1037C000024A0020110700F0F7BC000001FDFFFFD6
:1037D00000B5254B21F0004287B09A4203DC00225D
:1037E000134600922BE0214B9A4208D140B94FF08A
:1037F0000100FCF78CFDFFF7DCFF07B000BD03DB29
:10380000FFF7D4FF07B000BD02AAFFF7C1FC10F01C
:1038100003014FF001000DD0012914D002291AD064
:103820000DF1080C9CE80F00FFF776FE07B081F061
:10383000004100BD0DF1080C00909CE80F00FFF75F
:103840003FFF07B000BD0DF1080C9CE80F00FFF72B
:1038500063FE07B000BD0DF1080C00909CE80F005E
:10386000FFF72EFFE2E70000FB21E93F0000F07FB9
:1038700010B500290AD00878002807D005487844F8
:10388000FCF7F8FC002801D0002010BD0248784465
:1038900010BD00001E0B0000160B000010B591EAD1
:1038A000030F48BF83F0004300F16E83841A71EB6D
:1038B000030C05D2121943EB0C03001B61EB0C0146
:1038C0004FEA1154A4EB135CDFF81CE11EEA430F2E
:1038D00018BF9EEA445F00F0748021EA045123EA95
:1038E0000E0343F48013DCF1200E32D322FA0CFED7
:1038F00010EB0E0023FA0CFE41EB0E01CCF1200E72
:1039000003FA0EFE10EB0E00CCF1200E51F1000177
:10391000B1F5801F32D201EB045112FA0EF2BDE86C
:10392000104058BF7047401C38BF5FEA420218BFC2
:103930007047002814BF20F0010041F100014FEA58
:10394000410313F5001F38BF7047A1F1C04100F0DB
:1039500001BB012A43EB0302ACF1200CDCF11F0E8A
:1039600032BF4FF0000E23FA0CF310EB030041EBD3
:103970000451B4EB115FD0D0A1EB045101F58011DB
:10398000490801EB04515FEA30000ED350F100000A
:1039900038BF12FA0EFE08D1BDE81040C9E7401C3E
:1039A00038BF5FEA4202CAD1C3E7BDE810404FEA20
:1039B000410313F5001F38BF7047A1F1C04100F06B
:1039C000C9BA9EEA445F08D011EA5E0FBDE8104014
:1039D00004BF01F0004100207047BDE8104070B501
:1039E00000F06AFA64FBBE3E0000E0FF02494FF0BF
:1039F000000000F0AFBB00BF0000F87F2DE9C04120
:103A000030B4DFF8A4C23CEA111418BF3CEA131426
:103A100000F0ED801CEA111481EA030544EAD57434
:103A200018BF1CEA131500F0C880A4EB050404F1CC
:103A30007F7404F500344FF0004545EAC12145EAA2
:103A4000C32341EA505143EA52534FEAC0204FEAA0
:103A5000C222994208BF904200F09D804FEA136550
:103A60000FF24416765D4FEA134506FB05F7C7F1E2
:103A7000807706FB07F74FEAD737A7FB0368764244
:103A8000A7FB06CEC8F5803838BFA8F1010807FBB0
:103A900008E6A6FB028C4FF0000EE6FB03CEDCF13D
:103AA000000CCEF1004E38BFAEF1010EA6FB0C5853
:103AB0004FF00007E6FB0E87A1FB08C6A0FB07CE70
:103AC00016EB0E064FF0000545F10005E1FB07651A
:103AD00015F1E04E7EBFA4F580345FEA46066D41E5
:103AE00016F1800745F100054FEA172747EA0567F9
:103AF0004FEA15254FEA0666A6F1DE46B6F1805F6D
:103B000020D9384605EBC47124F0010C01EB0C11EF
:103B1000BCF1FE6F02D8F0BCBDE8008124425CBF5E
:103B200001F5801E9EEAC47F02D4F0BCBDE800818E
:103B3000244200F13980A1F1C041F0BCBDE8004150
:103B400000F008BA4FEAD02040EA41504FEAD121B4
:103B50004FEAD22242EA43524FEAD323A7FB02861E
:103B600007FB036605FB02661EEA0E0F58BFA6EBB5
:103B70000056B6EB00564FEA520E4EEAC37E18EBE3
:103B80000E0E56EB530EBCD518EB02085E417F1C9F
:103B900055F10005B5E74FF480154FF000074FF0E1
:103BA00000064FF00008ACE701F1C04101F0004110
:103BB0004FF00000F0BCBDE800810CEA131511EADB
:103BC0000C1F00D00CE013EA0C1F00F026804FF011
:103BD000000081EA030101F00041F0BCBDE8008172
:103BE000F0BCBDE8004181EA030100F0B3B9F0BCCC
:103BF000BDE8004170B500F05FF900BF097EFC3EF2
:103C000000F007B84FF0000081EA030101F0004125
:103C1000704781EA030100F09DB9F0BCBDE80041A6
:103C200022494FF000007047FFFDFBF9F7F5F4F271
:103C3000F0EEEDEBE9E8E6E4E3E1E0DEDDDBDAD847
:103C4000D7D5D4D3D1D0CFCDCCCBCAC8C7C6C5C4A5
:103C5000C2C1C0BFBEBDBCBBBAB9B8B7B6B5B4B3BC
:103C6000B2B1B0AFAEADACABAAA9A8A8A7A6A5A4A7
:103C7000A3A3A2A1A09F9F9E9D9C9C9B9A9999986B
:103C80009797969595949393929191908F8F8E8E0E
:103C90008D8C8C8B8B8A898988888787868585849B
:103CA00084838382828181800000FF070000F87F87
:103CB0004FEA41034FEA5353A3F58063D3F11E0348
:103CC000C8BFD3F1210C0CDD4FF0004242EAC12203
:103CD00042EA505232FA03FC8CEAE17CACEBE17030
:103CE0007047102BC4BF0020704703F5787CBCF1EF
:103CF000FF3F04D06FF0004282EA2100704770B5A8
:103D000000F0DAF84992248000207047F2E710F0C2
:103D1000004248BF4042B0FA80F310FA03F10AD0E3
:103D2000C3F11D0303F5806302EB03524FEA4150D8
:103D300002EBD12170474FF000007047B0FA80F3DA
:103D400010FA03F10AD0C3F11D0303F580634FEAB3
:103D500003524FEA415002EBD12170474FF000006F
:103D60007047000070B5DFF848C11CEA111E1EBF85
:103D70001CEA13159EEA0C0F95EA0C0F00F06F80F9
:103D800081EA03044EEAD47EAE4421EA4C1123EAD0
:103D90004C1341F4801143F48013AEF17F7EA1FBFC
:103DA000024CA0FB0365361955EB0C05A1FB034C37
:103DB0004CF10003A0FB021C16EB0C06654153F10D
:103DC0000003094218BF46F0010613F4007F0BD12F
:103DD0004FEA03314FEA053041EA155140EA1650E7
:103DE00034036FF003020AE04FEAC3214FEAC52013
:103DF00041EA555140EA5650F4026FF0020202EBDC
:103E00002E4201EB025585EACE710AD05FEA440CDE
:103E100018BF24F0004450F1000041F1000120EAF5
:103E2000D47040F2FE7C624500D270BDA84214BF3F
:103E30004FF080444FF04044002E08BF0024BEF1F4
:103E4000806FA8BFA1F1C041BDE8704080F28280C0
:103E500001F1C04101F000414FF0000070470CEA51
:103E600013159EEA0C0F18BF95EA0C0F06D081EAD5
:103E7000030E4FF000000EF0004170BD00F01CF882
:103E80008900013E00F007B800F009B84FEA430C82
:103E90005FEA5C5C08D081EA030100F05BB84FEA9E
:103EA000410C5FEA5C5CF6D102494FF000007047BC
:103EB0000000FF070000F87F0EF1020E2EF0030E47
:103EC0005EF8046B364205D4012A43EB030515F571
:103ED000001F12D8012841EB010C1CF5001F0CD863
:103EE0000ED14FEAD17C0CEB4C0C0CF1020C15F509
:103EF000001F08BF4CEBD37C04E04FF0080C01E03E
:103F00004FEAD37C0CEB4C0526FA05F606F00706C3
:103F1000B6F1040C06D20EEB860CBDE870404CF0F6
:103F2000010C6047DFE80CF0090B02024FF0004182
:103F3000A1F500214FF0000070BD19461046012880
:103F400051EB010418BFD4F5001484BF002001F028
:103F5000004170BD0808A0F500114FEA310170471B
:103F600010B591EA030F81F000413FF59FAC83F05B
:103F7000004300F009B8000010B591EA030F48BFF4
:103F800083F000433FF592AC841A71EB030C07D227
:103F90008CF0004C121943EB0C03001B61EB0C017D
:103FA0004FEA1154A4EB135CDFF8A4E11EEA430FBF
:103FB00018BF9EEA445F00F0B48021EA045123EA6E
:103FC0006E035242C3EB6E0338BF5B1EDCF1200E62
:103FD00025D322FA0CFE10EB0E0043FA0CFE41EB47
:103FE0000E01CCF1200E03FA0EFE10EB0E00CCF108
:103FF000200E51F1000129D401EB045112FA0EF206
:10400000BDE8104058BF7047401C1CBFB2F1004FC4
:10401000704700280CBF491C20F00100704712EBCC
:10402000020E43EB030218BF4FF0010E4EEA4202AC
:10403000ACF1200CDCF11E0E56D943FA0CFE10EB4D
:104040000E00CCF11E0E51F1FF31D5D50EF1010E4F
:1040500012FA0EFE404141EB010101EB445C5FEAC4
:104060005C5C10D901EB045110EBDE7038BFBEF17F
:10407000004FBDE8104018BF704700280CBF491C16
:1040800020F00100704734D24FEAD42C24F40064AD
:1040900011F500111BD0B1FA81F20B3AA41AA41E3B
:1040A000D2F12003914030FA03F31943904001EB21
:1040B000CC7101EB0451002CBDE81040A8BF704743
:1040C00001F1C04101F000414FF000007047B0FA2B
:1040D00080F310FA03F102D1BDE810407047E41AF2
:1040E000173C4805C90AE2E701EB0451BDE810405E
:1040F000704749104FEA300001EB0451BDE8104011
:1041000002E04FF0000170474A0008BF0042F8D0BB
:10411000B2F5001F28BF704701F000414FF00000CA
:1041200070479EEA445F07D011EA5E0FBDE8104079
:1041300004BF002100207047BDE8104070B5FFF7B4
:10414000BBFE00BF40DFF63E104683F000417047E3
:104150000000E0FF0CF00F03092B08BF082000F05F
:1041600059800A2B0BD0082B18BF704708BF1CF0D2
:10417000400F0AD04FF000004FF0000170471CF0D4
:10418000400F18BF4FF0004070471CF0100F08D0D0
:1041900000F07F4220F0704342EAD3014FEA4370BF
:1041A000704700F0604021F07F4242EA000201F0D7
:1041B0007F4040EA727070474FF0FF0C4CF4E06CA7
:1041C0001CEA11531CBF9CEA030C9445C2BFDA429F
:1041D00001EB02517047002B0DD0BCF1000F0FD046
:1041E00001F00041002AA4BF41F0E04141F07F61AD
:1041F0004FF00000704701F000414FF000007047A1
:1042000050EA01334FF09B0C18BF4CF0806C7FF4E8
:10421000EDAB70471CF4801F11D01CF4E02F03D0CD
:104220006FEACC31490070474FF04050EFF3008205
:1042300022F0704242EA000282F3008870474FF099
:1042400000007047000000004C5555555555A53FDE
:104250007751C1166CC156BF9015CB19A001FA3E1B
:10426000AD529C804F7E92BEC4B1B4BD9EEE213E45
:10427000D43888BEE9FAA8BD00004054FB21F93FBC
:104280003163621A61B4D03D0000601A61B4D03D60
:104290007370032E8A19A33B0000002E8A19A33BDA
:1042A000C14920259A837B390000000000000000EE
:1042B0006E83F9A22915444ED15727FCC0DD34F591
:1042C000999562DB4190433CAB6351FE61C5BBDE17
:1042D0003A6E24B7E0D24D42EA2E49061C92D1092B
:1042E0001CEB1DFE3EA729B1F53582E88444BB2EA8
:1042F00026709CE9417E5FB439D69139F4395383F5
:104300008B5F849C3B28F9BDFF97F81F0F9805DE53
:104310008B112FEF1F6D0A5ACF7E366DB709CB2751
:10432000663F464F2DEA5F9EC7BA27757BF1E5EBE6
:10433000F739073DEA92528AB15FFB6B085D8D1F2A
:104340004630035600000000A6F810111111813FFD
:10435000D561C119A0012ABF7DFEB157E31DC73E3B
:10436000EB9C2B8AE6E55ABE7CD5CF5A3AD9E53D7F
:10437000736574206672657120000000AC4400080B
:10438000000000205C000000FC0000080845000858
:1043900000040020686E00001801000810010000F1
:1043A00043000000F8FFFFFF004040404040404015
:1043B00040404141414141404040404040404040F8
:1043C000404040404040404040050202020202029C
:1043D00002020202020202020220202020202020EB
:1043E00020202002020202020202909090909090FF
:1043F00010101010101010101010101010101010BD
:104400001010101002020202020288888888888830
:10441000080808080808080808080808080808081C
:104420000808080802020202400000000000000024
:10443000000000000000000000000000000000007C
:10444000000000000000000000000000000000006C
:10445000000000000000000000000000000000005C
:10446000000000000000000000000000000000004C
:10447000000000000000000000000000000000003C
:10448000000000000000000000000000000000002C
:10449000000000000000000000000000000000001C
:1044A00000000000000000000000000000127A0080
:1044B00009024300020100803209040000010202E7
:1044C0000100052400100105240100010424020656
:1044D00005240600010705820340000209040100CB
:1044E000020A0000000705810240000007050302E0
:1044F0004000001201100102000040830425F10079
:084500000000000001000000B2
:040000050800016D81
:00000001FF
